:020000040800F2
:1000000000200020852B0008192B00081F2B00085A
:1000100000000000000000000000000000000000E0
:10002000000000000000000000000000252B000878
:1000300000000000000000002F2B0008392B0008F2
:10004000D52B0008D52B0008492B0008D52B00081C
:10005000D52B0008D52B0008D52B0008D52B000880
:10006000D52B0008D52B0008612B0008D52B0008E4
:10007000D52B0008D52B000800000000D52B000868
:1000800000000000D52B0008000000000000000068
:10009000D52B000800000000D52B0008D52B000848
:1000A000D52B0008D52B0008D52B0008D52B000830
:1000B000D52B0008D52B0008D52B0008D52B000820
:1000C0002ADAC65E4A6C07DE3249F5B31C6C42C0C0
:1000D0008BD3EDAB30844F44858D165C002BE03B19
:1000E00010B5064C2378002B07D1054B002B02D00E
:1000F000044800E000BF0123237010BD0C00002065
:1001000000000000B0850008044B10B5002B03D0A0
:100110000349044800E000BF10BDC04600000000D5
:1001200010000020B0850008002243088B4274D3E1
:1001300003098B425FD3030A8B4244D3030B8B42E8
:1001400028D3030C8B420DD3FF22090212BA030CF1
:100150008B4202D31212090265D0030B8B4219D3D2
:1001600000E0090AC30B8B4201D3CB03C01A5241F2
:10017000830B8B4201D38B03C01A5241430B8B423A
:1001800001D34B03C01A5241030B8B4201D30B0323
:10019000C01A5241C30A8B4201D3CB02C01A52414A
:1001A000830A8B4201D38B02C01A5241430A8B420D
:1001B00001D34B02C01A5241030A8B4201D30B02F6
:1001C000C01A5241CDD2C3098B4201D3CB01C01A10
:1001D000524183098B4201D38B01C01A524143091A
:1001E0008B4201D34B01C01A524103098B4201D308
:1001F0000B01C01A5241C3088B4201D3CB00C01A75
:10020000524183088B4201D38B00C01A52414308EC
:100210008B4201D34B00C01A5241411A00D2014611
:10022000524110467047FFE701B5002000F0F0F89A
:1002300002BDC0460029F7D076E7704703460B435E
:100240007FD4002243088B4274D303098B425FD3CF
:10025000030A8B4244D3030B8B4228D3030C8B42FB
:100260000DD3FF22090212BA030C8B4202D31212E1
:10027000090265D0030B8B4219D300E0090AC30BB6
:100280008B4201D3CB03C01A5241830B8B4201D363
:100290008B03C01A5241430B8B4201D34B03C01A4C
:1002A0005241030B8B4201D30B03C01A5241C30AC4
:1002B0008B4201D3CB02C01A5241830A8B4201D335
:1002C0008B02C01A5241430A8B4201D34B02C01A1F
:1002D0005241030A8B4201D30B02C01A5241CDD2C4
:1002E000C3098B4201D3CB01C01A524183098B420F
:1002F00001D38B01C01A524143098B4201D34B01F8
:10030000C01A524103098B4201D30B01C01A52415A
:10031000C3088B4201D3CB00C01A524183088B42E1
:1003200001D38B00C01A524143088B4201D34B00CA
:10033000C01A5241411A00D201465241104670473C
:100340005DE0CA0F00D04942031000D34042534041
:1003500000229C4603098B422DD3030A8B4212D301
:10036000FC22890112BA030A8B420CD38901921133
:100370008B4208D3890192118B4204D389013AD070
:10038000921100E08909C3098B4201D3CB01C01A45
:10039000524183098B4201D38B01C01A5241430958
:1003A0008B4201D34B01C01A524103098B4201D346
:1003B0000B01C01A5241C3088B4201D3CB00C01AB3
:1003C000524183088B4201D38B00C01A5241D9D2CB
:1003D00043088B4201D34B00C01A5241411A00D24C
:1003E0000146634652415B10104601D34042002B48
:1003F00000D54942704763465B1000D3404201B5C7
:10040000002000F005F802BD0029F8D016E770477B
:100410007047C046002B11D1002A0FD1002900D10E
:10042000002802D00021C943080007B4024802A1F5
:100430004018029003BDC046D9FFFFFF03B46846D1
:1004400001B5029800F034F8019B9E4602B00CBC46
:100450007047C046F0B5CE469946030C9C4613043F
:1004600047461B0C1D000E0061460404240C80B599
:100470000700100C4B436543414360432C0CC018EC
:1004800020188C46834203D980235B029846C444DB
:10049000494679435643030C2D042D0C89196344B6
:1004A00000044019C918C0BCB946B046F0BDC046EA
:1004B000F0B557464E464546DE46E0B504000D0011
:1004C0009246994683B08B4230D82DD0494650464B
:1004D00000F0BAF829000600200000F0B5F8331A41
:1004E0009846203B34D49B4653465A469340424656
:1004F0001F00534693401E00AF423BD8AF4200D18D
:1005000079E05B46A41BBD41002B00DA76E00022B7
:1005100000230092019301235A4693400193012343
:1005200042469340009329E08242CFD90022002323
:10053000009201930C9B002B01D01C605D60009821
:10054000019903B0F0BCBB46B246A946A046F0BD37
:1005500042469B4620239B1A5246DA4041461300EE
:100560004A468A40170042461F43534693401E00A6
:10057000AF42C3D900220023009201934346002BCF
:10058000D8D0FB0772081A4346467B080EE0AB4200
:1005900001D1A2420CD8A41A9D41012024196D4119
:1005A0000021013E24184D41002E06D0AB42EED969
:1005B000013E24196D41002EF8D1009801995B4647
:1005C00000196941002B24DB2B005A464446D340D6
:1005D0002A00E2401C005B461500002B2ADB2600A7
:1005E0009E40330026004746BE403200801A9941A3
:1005F000009001919EE7A342BCD882E742462023A7
:1006000000219B1A0022009101920122DA400192FE
:1006100085E7424620239B1A2A0046469A4023003B
:10062000F340444613432A00E2401C005B46150099
:10063000002BD4DA42462F002023260097409B1A35
:10064000DE403B003343CDE710B5002903D100F075
:1006500007F8203002E0080000F002F810BDC046A4
:100660001C2101231B04984201D3000C10391B0AE2
:10067000984201D3000A08391B09984201D30009A6
:10068000043902A2105C40187047C04604030202FD
:1006900001010101000000000000000080B500AF72
:1006A000BFF34F8FC046044B044ADA60BFF34F8F4D
:1006B000C046C046FDE7C04600ED00E00400FA0574
:1006C00080B500AF04F09CFC074B1A68064B042170
:1006D0000A431A600121012004F036FC01F0D0FD2C
:1006E000C046BD4680BDC0460070004080B582B0A7
:1006F00000AF786002F012FB7B68180002F0DCFAB1
:1007000002F0FEFAC046BD4602B080BD90B58BB087
:1007100002AF7860396014497A68082438193B6858
:1007200000930B00142100F083F980239900A0238B
:10073000DB050122180003F021FD3B1914211800EC
:1007400000F0CAFF0300FB61FB69002B00D000BE74
:1007500080239900A023DB050022180003F00EFD82
:10076000C046BD4609B090BD2800002090B595B0A8
:1007700000AF0423BB640220FFF7B8FF01F0CAF901
:1007800003003B643B6C002B04D00A20FFF7AEFF54
:10079000FFF784FF00F0C8FA734BDA6A724B8021CE
:1007A0008A43DA62714B180000F060FA0823FB18E4
:1007B000180000F0DFF800237B64B8E001F0A8FA2D
:1007C0000300FB643B1D180001F0E4FC0300FB6325
:1007D000FB6C002B05D1BB1C180001F0C9FA03000B
:1007E000FB64FB6B002B36D17B6C092B11DD7B6C22
:1007F0000F2B0EDC08217B18DB7B002B09D13B1D66
:1008000000229B5E9AB27B181A817B180122DA7350
:1008100021E07B6C132B11DD7B6C192B0EDC082186
:100820007B181B7C002B09D13B1D00229B5E9AB2DA
:100830007B185A817B1801221A740CE07B6C192BEF
:1008400009DD3B1D00229B5E9AB208217B189A812C
:100850007B1801225A74FB6C002B29D108217B18CC
:100860001B68BA1C0020125E9A187B181A607B184D
:100870009B7B0133DAB27B189A737B1804229A5E51
:10088000BB1C00201B5E9A4204DDBB1C00229A5E4A
:100890007B189A8008217B1806229A5EBB1C0020D8
:1008A0001B5E9A4204DABB1C00229A5E7B18DA8037
:1008B000FB6B002B07D13B1D00229B5E2C4A934211
:1008C00001DD012300E00023BB63BB6C0222D80FD3
:1008D000D1179A4248410300DBB27B637B6C002B4B
:1008E00009D07B6C0A211800FFF78EFD0B00092B45
:1008F00001D1012300E000233B633B6B002B0ED0B2
:100900007B6B002B0BD0BB6B002B08D0BB6C5A1C35
:10091000BA641C22BA1819001000FFF7F7FE7B6CAE
:100920001D2B01D0FFF7CCFE7B6C01337B647B6C0D
:100930001D2B00DC42E70823FA181C243B19110088
:10094000180000F041F8094B180000F0A0F900234E
:10095000BB64BB6C5A1CBA643A1919001000FFF74B
:10096000D5FEFFF7ADFE21E7001002402800002071
:10097000B80B000080B582B000AF78607B68104A89
:10098000DA807B680F4A9A807B6800221A607B6855
:1009900000229A737B6800221A817B6800225A81A8
:1009A0007B6800229A817B680022DA737B680022D0
:1009B0001A747B6800225A74C046BD4602B080BDDE
:1009C0000080FFFFFF7F000080B582B000AF78603D
:1009D00039603B6806229A5E7B68DA803B680422B5
:1009E0009A5E7B689A803B681A687B681A603B68ED
:1009F0009A7B7B689A733B681A897B681A813B688B
:100A00005A897B685A813B689A897B689A813B68DE
:100A1000DA7B7B68DA733B681A7C7B681A743B6804
:100A20005A7C7B685A74C046BD4602B080BD000047
:100A300090B595B000AFF860B9607A603B60BB6874
:100A4000142B01D0012307E13B6E032B01DD0123B1
:100A500002E10023FB647B68DB7B002B04D07B6816
:100A60001B891B0B1B0304D00123FB647C4BBB6461
:100A700002E07B681B89BB647B681B7C002B04D075
:100A80007B685B891B0B1B0304D00123FB64744B45
:100A90007B6402E07B685B897B647B685B7C002B0A
:100AA00004D07B689B891B0B1B0304D00123FB64D0
:100AB0006B4B3B6402E07B689B893B647B689B7B60
:100AC000002B0ED10123FB643223FB18012252427A
:100AD0001A803023FB18012252421A80614BFB62BC
:100AE00017E07B6804229B5E9AB23223FB181A80BF
:100AF0007B6806229B5E9AB23023FB181A807B68C3
:100B00001A687B689B7B19001000FFF797FB0300B6
:100B1000FB627B6C1A033B6C1A43BB6C1B061343D2
:100B2000BB62FB6C9B015AB23B6E1B015BB2134371
:100B30005BB2DAB2BB6C1B0ADBB21343DAB2272119
:100B40007B181A7026203B1800221A707B181A781E
:100B500014217B181A707B1801333A1812781A7016
:100B60000C003B19023339680222180007F016FD09
:100B70003B1904333A68911C0222180007F00EFD5D
:100B80003B1906332C22B9180222180007F006FD83
:100B90003B1908333222B9180222180007F0FEFC74
:100BA0003B190A333022B9180222180007F0F6FC6C
:100BB0003B190C332822B9180422180007F0EEFC68
:100BC00000F0B4FF03003B611023FB187B6300239C
:100BD000FB6310E0FB6B7A6BD3181A7826217B1825
:100BE0001B785340DBB21A001F4B9A5C7B181A70BB
:100BF000FB6B0133FB63FB6B032BEBD90023BB6364
:100C000011E01423FA18BB6BD3181A7826217B182D
:100C10001B785340DBB21A00134B9A5C7B181A7096
:100C2000BB6B0133BB63BB6B0F2BEAD914243B199D
:100C300001332622BA1812781A701023F918FB68AB
:100C40000422180007F0AAFCFB68191D3B191022AA
:100C5000180000F075FF00231800BD4615B090BDC8
:100C6000FF0F0000FFFF0000C885000880B582B0BC
:100C700000AF786000F07EFF03001A007B681A80E6
:100C80007B6800225A80C046BD4602B080BD80B558
:100C900082B000AF78607B685B8801339AB27B6872
:100CA0005A807B685B88002B05D100F063FF03004E
:100CB0001A007B681A80C046BD4602B080BD0000A5
:100CC00080B586B000AF3B1D00221A613B1D01229A
:100CD0005A603B1D00229A603B1D0022DA603B1DDA
:100CE00020221A600F4B00222021180003F046FA40
:100CF0003B1D0C4A1900100002F0F0FF3B1D0822BA
:100D00001A60084B00220821180003F037FA3B1D37
:100D1000044A1900100002F0E1FFC046BD4606B0CB
:100D200080BDC0460004005080B500AFFFF7C8FF8B
:100D3000164B00222021180003F020FA0120FFF7B3
:100D4000D5FC124B01222021180003F017FA0120D4
:100D5000FFF7CCFC0D4B00222021180003F00EFA07
:100D60000120FFF7C3FC094B01222021180003F0EA
:100D700005FA0120FFF7BAFC044B002220211800DD
:100D800003F0FCF9C046BD4680BDC04600040050DB
:100D900080B582B000AF134B5A6B124B80214901D2
:100DA0000A435A6301F080FB0E4B1A6B0D4B012175
:100DB0000A431A630B4B1B6B012213407B607B6859
:100DC000084B9A6B074B10210A439A6301F0A4FB6E
:100DD000044B5A6B034B20210A435A63C046BD465D
:100DE00002B080BD0010024090B583B000AF8023F8
:100DF0001902A023DB050122180003F0BFF9FC1D36
:100E00002D4B180005F0D4FB030023702B4B5A6ABE
:100E10002A4B802149010A435A62284B5A6A274BC0
:100E200027490A405A62254B5A6B244B24490A40F1
:100E30005A63FC1D234B180005F024FC03002370AB
:100E40001E4B9A6A1D4B10210A439A621B4B9A6AE9
:100E50001A4B10218A439A62184B9A6B174B102138
:100E60008A439A63154B1A6A144B01210A431A628A
:100E7000124B1A6A114B01218A431A620F4B1A6BEB
:100E80000E4B01218A431A630C4B5A6A0B4B2021EB
:100E90000A435A62094B5A6A084B20218A435A6214
:100EA000064B5A6B054B20218A435A63FFF708FF14
:100EB000C046BD4603B090BD2C010020001002408A
:100EC000FFEFFFFF8401002080B584B000AF7860A1
:100ED000396001235B42FB600023BB6007E0BB6815
:100EE000052B01D1BB68FB60BB680133BB60BB68ED
:100EF0000F2BF4DDFB68072B03DD7B680E4A1A60BD
:100F000002E07B680D4A1A60FB6807221340FB6011
:100F10007B681B681B68FA6892000F2191400A00E9
:100F2000D2431A40FB689B00396899400B00134379
:100F30001800BD4604B080BD2404005020040050B9
:100F400080B582B000AF3B0004211800FFF7BCFF62
:100F500003007B604D4B1A684C4B40210A431A60DA
:100F60004A4B0022DA60494B9B6802221340FAD0B8
:100F7000C046C046C046A023DB05802212069A6107
:100F8000C046C046C046C046C046C046C046C04631
:100F9000C046C046C046C046C046C046C046C04621
:100FA000C046C046C046C046C046C046C046C04611
:100FB000C046C046C046C046C046C046C046C04601
:100FC000C046C046C046C046C046C046C046C046F1
:100FD000C046C046C046C046C046C046C046C046E1
:100FE000C046C046C046C046C046C046C046C046D1
:100FF000C046C046C046C046C046C046C046C046C1
:10100000C046C046C046C046C046C046C046C046B0
:10101000C046C046C046C046C046C046C046C046A0
:10102000C046C046C046C046C046C046C046C04690
:10103000C046C046C046C046C046C046C046C04680
:10104000C046C046C046C046C046C046C046C04670
:10105000C046C046C046C046C046C046C046C04660
:10106000C046C046C046C046084B1722DA60074B50
:101070009B6802221340FAD0044B0122DA60034B32
:101080009B6802221340FAD002E0C04600300140C3
:10109000A023DB05802212029A61C046C046C046EA
:1010A000C046C046C046C046C046C046C046C04610
:1010B000C046C046C046C046C046C046C046C04600
:1010C000C046C046C046C046C046C046C046C046F0
:1010D000C046C046C046C046C046C046C046C046E0
:1010E000C046C046C046C046C046C046C046C046D0
:1010F000C046C046C046C046C046C046C046C046C0
:10110000C046C046C046C046C046C046C046A023F2
:10111000DB05802212069A61C046C046C046C04622
:10112000C046C046C046C046C046C046C046C0468F
:10113000C046C046C046C046C046C046C046C0467F
:10114000C046C046C046C046C046C046C046C0466F
:10115000C046C046C046C046C046C046C046C0465F
:10116000C046C046C046C046C046C046C046C0464F
:10117000C046C046C046C046C046C046C046C0463F
:10118000C046C046C046C046C046C046C046C0462F
:10119000C046C046C046C046C046C046C046C0461F
:1011A000C046C046C046C046C046C046C046C0460F
:1011B000C046C046C046C046C046C046C046C046FF
:1011C000C046C046C046C046C046C046C046C046EF
:1011D000C046C046C046C046C046C046C046C046DF
:1011E000C046C046C046C046C046C046C046C046CF
:1011F000C046C046C046C046C046C046C046C046BF
:10120000934B1722DA60924B9B6802221340FAD06C
:101210008F4B0022DA608E4B9B6802221340FAD07B
:10122000A023DB05802212029A61C046C046C04658
:10123000C046C046C046C046C046C046C046C0467E
:10124000C046C046C046C046C046C046C046C0466E
:10125000C046C046C046C046C046C046C046C0465E
:10126000C046C046C046C046C046C046C046C0464E
:10127000C046C046C046C046C046C046C046C0463E
:10128000C046C046C046C046C046C046C046C0462E
:10129000C046C046C046C046C046C046C046A02361
:1012A000DB05802212069A61C046C046C046C04691
:1012B000C046C046C046C046C046C046C046C046FE
:1012C000C046C046C046C046C046C046C046C046EE
:1012D000C046C046C046C046C046C046C046C046DE
:1012E000C046C046C046C046C046C046C046C046CE
:1012F000C046C046C046C046C046C046C046C046BE
:10130000C046C046C046C046C046C046C046C046AD
:10131000C046C046C046C046C046C046C046C0469D
:10132000C046C046C046C046C046C046C046C0468D
:10133000C046C046C046C046C046C046C046C0467D
:10134000C046C046C046C046C046C046C046C0466D
:10135000C046C046C046C046C046C046C046C0465D
:10136000C046C046C046C046C046C046C046C0464D
:10137000C046C046C046C046C046C046C046C0463D
:10138000C046C046C046C046C046C046C046C0462D
:101390002F4B0022DA602E4B9B6802221340FAD0BA
:1013A0002B4B9122DA602A4B9B6802221340FAD021
:1013B000274B8122DA60264B9B6802221340FAD029
:1013C000234B0322DA60224B9B6802221340FAD09F
:1013D0001F4B0022DA601E4B9B6802221340FAD09A
:1013E0001B4B0022DA601A4B9B6802221340FAD092
:1013F000174B0422DA60164B9B6802221340FAD086
:10140000134B8722DA60124B9B6802221340FAD0FA
:101410000F4B8022DA600E4B9B6802221340FAD0F9
:101420000B4B6022DA600A4B9B6802221340FAD011
:10143000074B0022DA60064B9B6802221340FAD069
:10144000034B0022DA60024B9B680222134001E04A
:1014500000300140002BF6D0144B3622DA60134BDB
:101460009B6802221340FAD0104B4622DA600F4BE1
:101470009B6802221340FAD00C4B6722DA600B4BB8
:101480009B6802221340FAD0084B1A22DA60074BFD
:101490009B6802221340FAD0044B0322DA60034B0C
:1014A0009B6802221340FAD002E0C046003001409F
:1014B000C046C046C046C046C046C046C046C046FC
:1014C000C046C046C046C046C046C046C046C046EC
:1014D000C046C046C046C046C046C046C046C046DC
:1014E000C046C046C046C046C046C046C046C046CC
:1014F000C046C046C046C046C046C046C046C046BC
:10150000C046C046C046C046C046C046C046C046AB
:10151000C046C046C046C046C046C046C046C0469B
:10152000C046C046A023DB05802212029A61C04655
:10153000C046C046C046C046C046C046C046C0467B
:10154000C046C046C046C046C046C046C046C0466B
:10155000C046C046C046C046C046C046C046C0465B
:10156000C046C046C046C046C046C046C046C0464B
:10157000C046C046C046C046C046C046C046C0463B
:10158000C046C046C046C046C046C046C046C0462B
:10159000C046C046C046C046C046C046C046C0461B
:1015A000C046A023DB05802212069A61C046C046D1
:1015B000C046C046C046C046C046C046C046C046FB
:1015C000C046C046C046C046C046C046C046C046EB
:1015D000C046C046C046C046C046C046C046C046DB
:1015E000C046C046C046C046C046C046C046C046CB
:1015F000C046C046C046C046C046C046C046C046BB
:10160000C046C046C046C046C046C046C046C046AA
:10161000C046C046C046C046C046C046C046C0469A
:10162000C046C046C046C046C046C046C046C0468A
:10163000C046C046C046C046C046C046C046C0467A
:10164000C046C046C046C046C046C046C046C0466A
:10165000C046C046C046C046C046C046C046C0465A
:10166000C046C046C046C046C046C046C046C0464A
:10167000C046C046C046C046C046C046C046C0463A
:10168000C046C046C046C046C046C046C046C0462A
:10169000C046C0460E4B1022DA600D4B9B680222FA
:1016A0001340FAD00A4B0222DA60094B9B680222EF
:1016B0001340FAD0074B10221A623B687A681A600E
:1016C000C046C046C046C046BD4602B080BDC0460A
:1016D000003001400014014090B59A4CA54400AF81
:1016E000786039603B68202B01D9012324E10C2369
:1016F000FB18954ABA181360002392221201BA18F7
:10170000136015E090497B181B681A1D7818026059
:1017100030221A607B181B681A1D79180A60102283
:101720001A6092221201BB181B680133BA181360A9
:1017300092231B01FB181B68072BE3D91F23834A45
:10174000BA18136020E00122804BFB181B689A40F6
:1017500013001A007E4B134008D07B497B181B688E
:101760001A1D79180A6030221A6007E076497B1842
:101770001B681A1D79180A6010221A60734ABB1878
:101780001B68013BBA181360704BFB181B68002BD9
:10179000D9DA00236F4ABA18136043E007236E4A70
:1017A000BA18136033E07A686A4BFB181B68D318C9
:1017B0001B781A00684BFB181B681A4113000122A2
:1017C00013400FD060497B181B681A1D78180260FF
:1017D00030221A607B181B681A1D79180A601022C3
:1017E0001A600EE058497B181B681A1D78180260B1
:1017F00010221A607B181B681A1D79180A603022A3
:101800001A60554ABB181B68013BBA181360524B4B
:10181000FB181B68002BC6DA4E4ABB181B68013345
:10182000BA1813604B4BFB181A683B689A42B5D341
:10183000002391221201BA18136016E042497B1866
:101840001B681A1D7818026020221A607B181B681A
:101850001A1D79180A60802292031A6091221201DF
:10186000BB181B680133BA18136091231B01FB18C6
:101870001B68072BE2D90C243B19334ABA181268AB
:10188000D31A9B103B60FFF783FA344B10225A6047
:10189000334B90221A60334B334A9A60314B3A19DA
:1018A000DA60304B3A685A602E4B304A1A60FFF7C4
:1018B00047FB2F4B80225200DA602D4B1A682C4BCD
:1018C00001210A431A60C046244B1B6820221340A2
:1018D000FAD0A023DB05802212029A610823FB18AC
:1018E00000211800FFF7F0FA0300224AB9180B6034
:1018F000BB68BA1812681A60C046C046C046A0232A
:10190000DB05802212069A611B4B1722DA601A4B04
:101910009B6802221340FAD0174B0122DA60164B63
:101920009B6802221340FAD0A023DB05802212021A
:101930009A61FFF759FA00231800BD460F4B9D44EA
:1019400090BDC046D4F6FFFF240900001C0900002A
:10195000DE510B931809000014090000000002403A
:10196000A80002401C00024020140140912A0000FF
:10197000001000400C090000003001402C0900005C
:1019800080B500AF024B1B681800BD4680BDC04645
:101990005000F81F80B500AF024B1B681800BD4611
:1019A00080BDC0465400F81F80B500AF024B1B68D5
:1019B0001800BD4680BDC0466400F81F90B5CFB08A
:1019C00002AFF860B9607A603B6002235A4210248B
:1019D0003B190021180006F096FD030096225200E4
:1019E000B9180B60BB181B68002B05D03B191800F9
:1019F00006F0A1FD012344E03A6810243B191100D0
:101A0000180006F012FD030096225200B9180B6070
:101A1000BB181B68002B05D03B19180006F08BFD86
:101A200001232EE03B6879681024381900220092C7
:101A3000102206F0D7FC030096225200B9180B6062
:101A4000BB181B68002B05D03B19180006F073FD6E
:101A5000012316E0FA68B96810243819102306F03B
:101A600006FD030096225200B9180B60BB181B68D4
:101A7000002B05D03B19180006F05DFD012300E0A6
:101A800000231800BD464DB090BD0000B0B58CB02D
:101A900000AF7860FFF774FF02001C243B191A6046
:101AA000FFF778FF02003B195A60FFF77DFF020045
:101AB0003B199A603B190022DA600C257B1918004B
:101AC00010231A00002106F03DFD104B104A791931
:101AD0003819FFF773FF0300FB62FB6A002B01D08C
:101AE000FB6A0EE00C217B181A687B185B685A4071
:101AF0007B189B685A407B18DB685A407B681A60E9
:101B000000231800BD460CB0B0BDC046D886000802
:101B1000C886000880B500AF034B1800FFF7B6FF7A
:101B200003001800BD4680BD2C00002080B500AF2A
:101B3000024B1B681800BD4680BDC0462C0000202B
:101B400080B584B000AFF860B9607A607B68102B14
:101B500001D0012306E0054B054AB968F868FFF794
:101B60002DFF03001800BD4604B080BDC000000872
:101B7000D0000008B0B584B000AF2B4B1A6B2A4BD5
:101B8000802149030A431A63274B1A6B80235B03A6
:101B900013403B603B6800F03FFC0F23FB18FF2223
:101BA0001A706423BB6010E00F257C193A1D1F4B8F
:101BB0001100180004F0C8F9030023707B191B788A
:101BC000002B02D00120FEF791FD0F23FB181B789C
:101BD000002B04D0BB685A1EBA60002BE4D1134B13
:101BE000180004F086F9104B1A6A0F4B8021490344
:101BF0000A431A620C4B1A6A0B4B0D490A401A62CF
:101C0000094B1A6B084B0A490A401A630F23FB1849
:101C10001B78002B01D0074B01E07B689BB21800BA
:101C2000BD4604B0B0BDC04600100240F800002020
:101C3000FFFFEFFF7779000080B500AF80235B01E5
:101C400011480122190002F099FA80231B010E4865
:101C50000122190002F092FA80235900A023DB052B
:101C60000022180002F08AFA0120FEF73FFD074B20
:101C70009A6B064B8021C9030A439A6300F08EFBDE
:101C800000231800BD4680BD000400500010024033
:101C900090B583B000AFFC1D194B180002F022FB79
:101CA00003002370174B9A6A164B8021C9030A431D
:101CB0009A62144B9A6A134B13490A409A62114B69
:101CC0009A6B104B10490A409A6380235B010F48BE
:101CD0000122190002F052FA80231B010B48012255
:101CE000190002F04BFA80235900A023DB050122E2
:101CF000180002F043FA00231800BD4603B090BD5F
:101D0000A400002000100240FFFFBFFF00040050AD
:101D100090B587B004AFFFF78FFF03007B607B684F
:101D2000002B03D0FFF7B4FF7B681AE0BB1CC12275
:101D30001A70FC1C0D486423029301230193BB1C01
:101D4000009301231422A62102F0FCFA0300237061
:101D5000FB1C1B78002B03D0FFF79AFF012300E048
:101D600000231800BD4603B090BDC046A40000206B
:101D7000B0B588B004AF78600B23FB1800221A704E
:101D80000F23FB1819221A700E257C19334864237F
:101D90000293012301930B23FB18009301230722D5
:101DA000A62102F0FDFB030023707B191B78002B9A
:101DB00003D0FFF76DFF01234BE00B23FB181B78CB
:101DC000012B02D00120FEF791FC0B23FB181B789E
:101DD000012B07D00F22BB181B78BA18591E11709F
:101DE000002BD1D10B23FB181B78012B03D0FFF75D
:101DF0004FFF01232DE00E257C1918486423029320
:101E0000022301930823FB18009301230822A62133
:101E100002F0C6FB030023707B191B78002B03D054
:101E2000FFF736FF012314E008217B181B781B0203
:101E30001AB27B185B781BB213431AB20C217B18C1
:101E40001A807B1800229A5E7B681A80FFF720FFB9
:101E500000231800BD4604B0B0BDC046A400002059
:101E600080B584B000AFF860B9607A60FB6819682B
:101E7000BB685B431A0013005B009B18DB430B40FD
:101E80001A00BB685B4379684B431A43FB681A60CE
:101E9000C046BD4604B080BD80B582B000AF78605A
:101EA00039607B683A689A62C046BD4602B080BD20
:101EB00080B500AFA023DB0508211800FFF7ECFF79
:101EC000A023DB05012208211800FFF7C9FFC04647
:101ED000BD4680BD80B500AFA023DB0503220821ED
:101EE0001800FFF7BDFFC046BD4680BDB0B590B03D
:101EF00000AFFFF7DDFF3B1D180038231A0000215B
:101F000006F020FB3B1D02221A603B1D0122DA6015
:101F10003B1D10221A613F257C193B1D180003F060
:101F20007DF8030023707B191B78002B01D001235F
:101F300056E02D4B5A6B2C4B802189000A435A6383
:101F40002A4B2B4A1A60294B0122DA63274B0C22B9
:101F50001A64264B80225A64244B00229A64234B35
:101F6000E02252035A60214B00229A601F4B02224A
:101F70009A631E4B01221A611C4B0022DA601B4B34
:101F8000202200219954194B212200219954174BEA
:101F900000229A62154BC222FF325A62134B2C2246
:101FA00000219954114B08225A61104B00221A63E8
:101FB0000E4B00229A610D4B01225A630B4B0022FB
:101FC000DA613F257C19094B180000F0B5FE0300CB
:101FD00023707B191B78002B01D0012300E0002324
:101FE0001800BD4610B0B0BD001002403000002007
:101FF00000240140B0B590B000AF3F257C191E4BC6
:10200000180001F02BF8030023701C4B5A6A1B4B7D
:10201000802189000A435A62184B5A6A174B1849A3
:102020000A405A62154B5A6B144B15490A405A63C1
:102030003B1D180038231A00002106F083FA3B1DCF
:1020400002221A603B1D0022DA603B1D10221A6139
:102050007C193B1D180002F0E1FF030023707B197F
:102060001B78002B01D0012302E0FFF733FF002390
:102070001800BD4610B0B0BD300000200010024076
:10208000FFFDFFFFB0B588B000AF786039600C216C
:102090007B18802252015A607B187A681A601725D3
:1020A0007C197A183A4B1100180001F0D9F9030095
:1020B00023707B191B78002B05D0354B180001F0DD
:1020C000C7F8C8235FE01E23FB1800221A800023F4
:1020D000BB6136E017257C192D4B180001F064F820
:1020E000030023707B191B78002B05D0284B1800A8
:1020F00001F0AEF8C92346E017257C19244B642172
:10210000180001F0E5F8030023707B191B78002B01
:1021100005D01F4B180001F09BF8CA2333E0BB69C0
:10212000002B0BDD1A4B180001F06EF9030099B279
:102130001E22BB18BA1812888A181A80BB6901338C
:10214000BB61BB69062BC5DD17257C19104B180038
:1021500001F07EF8030023707B191B78002B05D05B
:102160000B4B180001F074F8CB230CE01E23FB1876
:102170001B8806211800FDF7D7FF03009BB21A0049
:102180003B681A6000231800BD4608B0B0BDC046C9
:102190003000002080B586B000AF7860FFF7A6FE63
:1021A00003007B617B69002B01D07B6948E0002341
:1021B000FB600023BB600C23FB18234A19001000AE
:1021C000FFF760FF03007B617B69002B01D07B6917
:1021D00036E00823FB181D4A19001000FFF752FFD4
:1021E00003007B617B69002B01D07B6928E0FFF74E
:1021F00001FF03007B617B69002B01D07B691FE03D
:10220000134B1B881A00134B5343FA681100180034
:10221000FDF78AFF03003B61BB683A6953430E49EF
:102220001800FDF781FF03001A000C4B53430C49C3
:102230001800FDF779FF03001AB27B681A800023AB
:102240001800BD4606B080BD0000024440000018E2
:102250007800F81FB80B0000FF0F00001482000088
:10226000242C000080B500AF00F0B6FC00F008F8A8
:1022700000F08CF900F0E4F8FEF778FAFCE70000D3
:1022800090B59DB000AF38243B19180038231A00D0
:10229000002106F057F92423FB18180014231A0014
:1022A000002106F04FF93B00180024231A000021FA
:1022B00006F048F9364B1B68364A1A40344B8021E9
:1022C00009010A431A6002F031FE334B1A6D324B9A
:1022D00030490A401A653B1916221A603B198022C0
:1022E00052009A6021007B180122DA607B181022CC
:1022F0001A617B180122DA617B1800221A627B18AE
:10230000C022D2015A627B1802229A627B180022F4
:10231000DA627B1800221A637B188022D2035A6388
:102320007B18180002F07AFE031E01D000F016FAA6
:1023300024217B180F221A607B1800225A607B1818
:1023400000229A607B180022DA607B1800221A6152
:102350007B180021180003F025FA031E01D000F0BD
:10236000FDF93B0060221A603B00802252025A6055
:102370003B0000221A623B00180003F001FC031E20
:1023800001D000F0EBF9C046BD461DB090BDC0467F
:1023900000700040FFE7FFFF0010024080B500AF73
:1023A0001B4B1C4A1A601A4B00225A60184B002221
:1023B0009A60174B0122DA60154B00221A61144B08
:1023C00000225A61124B00229A61114B0022DA61FD
:1023D0000F4B00221A620E4B180001F0EDFE031E97
:1023E00001D000F0BBF90A4B0021180002F006FDF5
:1023F000031E01D000F0B2F9054B0021180002F0D5
:1024000049FD031E01D000F0A9F9C046BD4680BDBC
:10241000A40000200058004080B500AF064B074ADA
:102420001A60054B180003F039FD031E01D000F0BF
:1024300095F9C046BD4680BDF8000020005002401E
:1024400080B500AF164B174A1A60154B00225A6030
:10245000134B7F229A60124BFF22DA60104B00224E
:102460001A610F4B00225A610D4B00229A610C4BEE
:102470000022DA610A4B180003F0C4FD031E01D0EC
:1024800000F06CF9F0231902054B0022180003F04C
:10249000EBFE031E01D000F061F9C046BD4680BDD1
:1024A000080100200028004080B500AF184B194AF1
:1024B0001A60174B822252005A60154B00229A6014
:1024C000134B0022DA60124B00221A61104B0022DB
:1024D0005A610F4B802292009A610D4B0022DA6103
:1024E0000B4B00221A620A4B00225A62084B002250
:1024F0009A62074B0722DA62054B180003F0C4FF0B
:10250000031E01D000F02AF9C046BD4680BDC0467A
:102510002C0100200030014080B582B000AF3B00AC
:10252000180008231A00002106F00CF8154B164A73
:102530001A60144B00225A60124B00229A60114B11
:102540003422DA600F4B00225A610E4B180004F05F
:1025500058F8031E01D000F001F93B0000221A6078
:102560003B0000225A603A00064B1100180004F0AC
:102570001BF9031E01D000F0F1F8C046BD4602B0C1
:1025800080BDC046840100200010004090B58BB093
:1025900000AF14243B19180014231A00002105F081
:1025A000D1FF674BDA6A664B04210A43DA62644B57
:1025B000DB6A042213403B613B69614BDA6A604B82
:1025C00080210A43DA625E4BDB6A80221340FB60A3
:1025D000FB685B4BDA6A5A4B01210A43DA62584BBB
:1025E000DB6A01221340BB60BB68554BDA6A544B6F
:1025F00002210A43DA62524BDB6A022213407B60FB
:102600007B68504B00220321180001F0B7FDD8234E
:102610005B014D480122190001F0B0FD4B494A4BC6
:102620000022180001F0AAFD81231902A023DB0576
:102630000122180001F0A2FDF0235901A023DB05BF
:102640000022180001F09AFD3B19802292011A60C5
:102650003B1903225A603B1900229A603B193C4AFD
:102660001900100001F03AFB3B1903221A603B19D4
:1026700001225A603B1900229A603B190022DA605D
:102680003B19304A1900100001F028FB3B19FF22CA
:102690001A603B1903225A603B1900229A603A19CA
:1026A000A023DB051100180001F018FB3B190522DF
:1026B0001A603B1903225A603B1900229A603B19A9
:1026C000214A1900100001F009FB3B19214A1A6048
:1026D0003B1900225A603B1900229A603B191A4AA2
:1026E0001900100001F0FAFA3B191B4A1A603B1955
:1026F00001225A603B1900229A603B190022DA60DD
:102700003B19114A1900100001F0E8FA21007B186A
:102710009F2212021A607B1801225A607B18002245
:102720009A607B180022DA607A18A023DB0511007A
:10273000180001F0D3FAC046BD460BB090BDC046AC
:1027400000100240001C005000040050C080000037
:102750000008005002040000C09B000080B500AFDC
:1027600072B6C046FEE7000080B500AF074B5A6B5B
:10277000064B01210A435A63044B9A6B034B802199
:1027800049050A439A63C046BD4680BD0010024019
:1027900080B582B000AF78607B681B68064A9342C0
:1027A00006D1064B5A6B054B802189000A435A63B8
:1027B000C046BD4602B080BD00240140001002406A
:1027C00080B582B000AF78607B681B68064A934290
:1027D00005D1064B5A6B054B05490A405A63C04662
:1027E000BD4602B080BDC04600240140001002403A
:1027F000FFFDFFFF90B589B000AF78600C243B1956
:10280000180014231A00002105F09CFE7B681B6849
:10281000184A934229D1184BDA6A174B02210A430E
:10282000DA62154BDB6A02221340BB60BB683B19BE
:10283000C022D2011A6021007B1812225A607B1834
:1028400000229A607B180322DA607B1805221A6145
:102850007B180A4A1900100001F040FA064B9A6BE7
:10286000054B8021C9030A439A63C046BD4609B09F
:1028700090BDC046005800400010024000040050C7
:1028800080B582B000AF78607B681B680D4A9342C8
:1028900013D10D4B9A6B0C4B0C490A409A63802361
:1028A0009B010B4A1900100001F08EFB8023DB0115
:1028B000074A1900100001F087FBC046BD4602B070
:1028C00080BDC0460058004000100240FFFFBFFF1F
:1028D0000004005080B584B000AF78607B681B684E
:1028E0000A4A93420DD10A4B1A6B094B80214903C6
:1028F0000A431A63064B1A6B80235B031340FB6089
:10290000FB68C046BD4604B080BDC04600500240D2
:102910000010024080B582B000AF78607B681B6811
:10292000064A934205D1064B1A6B054B05490A40EE
:102930001A63C046BD4602B080BDC046005002408A
:1029400000100240FFFFEFFF80B582B000AF78605B
:102950007B681B680A4A93420ED10A4B1A6D094BD9
:102960008021C9020A431A6500220021022000F0DA
:10297000FFFF022001F011F8C046BD4602B080BD45
:10298000002800400010024090B589B000AF786088
:102990000C243B19180014231A00002105F0D2FD65
:1029A0007B681B68174A934228D1174B5A6B164B0A
:1029B000802149010A435A63134BDA6A124B022100
:1029C0000A43DA62104BDB6A02221340BB60BB6829
:1029D00021007B1838221A607B1802225A607B186B
:1029E00000229A607B180322DA607B1800221A61A9
:1029F0007B18064A1900100001F070F9C046BD4668
:102A000009B090BD003001400010024000040050A9
:102A100080B582B000AF78607B681B68084A93423B
:102A20000AD1084B5A6B074B07490A405A63074BB8
:102A30003821180001F0C8FAC046BD4602B080BD7A
:102A40000030014000100240FFEFFFFF0004005083
:102A500080B582B000AF78607B681B681C4A9342E7
:102A600031D11C4B9A6B1B4B10210A439A631A4BB2
:102A70001A4A1A60184B09225A60174B10229A60A2
:102A8000154B0022DA60144B80221A61124B80220F
:102A900092005A61104B802212019A610E4B002263
:102AA000DA610D4BC02292011A620B4B180000F044
:102AB00091FF031E01D0FFF751FE7B68064ADA61E1
:102AC000054B7A689A62C046BD4602B080BDC046DA
:102AD0000010004000100240C40100201C00024011
:102AE00080B582B000AF78607B681B68084A93426B
:102AF0000AD1084B9A6B074B10218A439A637B6873
:102B0000DB69180000F0DEFFC046BD4602B080BDA4
:102B1000001000400010024080B500AFFEE780B515
:102B200000AFFEE780B500AFC046BD4680BD80B5B2
:102B300000AFC046BD4680BD80B500AF00F0A0F834
:102B4000C046BD4680BD000080B500AF034B1800F5
:102B500003F062FCC046BD4680BDC04608010020AF
:102B600080B500AF034B180001F00AF8C046BD461F
:102B700080BDC046C401002080B500AFC046BD4640
:102B800080BD00000D488546FFF7F6FF0C480D4953
:102B90000D4A002302E0D458C4500433C4188C42B8
:102BA000F9D30A4A0A4C002301E013600432A2421E
:102BB000FBD305F0CFFCFFF755FBFEE7002000201C
:102BC000000000200C0000203C9700080C000020B2
:102BD00010020020FEE7000080B582B000AFFB1DB0
:102BE00000221A700B4B1A680A4B40210A431A60E4
:102BF000032000F011F8031E03D0FB1D01221A7000
:102C000001E0FFF7B1FDFB1D1B781800BD4602B0C7
:102C100080BDC0460020024090B583B000AF786010
:102C2000144B1C68144B1B781900FA239800FDF70D
:102C30007BFA030019002000FDF776FA0300180064
:102C400000F0BBFE031E01D001230FE07B68032BC5
:102C50000BD8796801235B420022180000F088FE3F
:102C6000064B7A681A60002300E001231800BD4675
:102C700003B090BD000000200800002004000020E8
:102C800080B500AF054B1B781A00054B1B68D218A6
:102C9000034B1A60C046BD4680BDC04608000020F8
:102CA0000C02002080B500AF024B1B681800BD4627
:102CB00080BDC0460C02002080B584B000AF7860B3
:102CC000FFF7F0FF0300BB607B68FB60FB6801332C
:102CD00005D00A4B1B781A00FB689B18FB60C046A6
:102CE000FFF7E0FF0200BB68D31AFA689A42F7D8F0
:102CF000C046C046BD4604B080BDC04608000020A6
:102D000080B500AF044B1A68034B02218A431A6056
:102D1000C046BD4680BDC04610E000E080B500AFB3
:102D2000044B1A68034B02210A431A60C046BD4691
:102D300080BDC04610E000E080B582B000AF786092
:102D40007B68002B01D101236DE17B685B6D002B5B
:102D50001ED17B6800229A657B685022002199541D
:102D60007B68B34ADA657B68B24A1A667B68B24A06
:102D70005A667B68B14A9A667B68DB6E002B02D18B
:102D80007B68AF4ADA667B68DB6E7A68100098472A
:102D90007B685B6D10221340102B05D07B681B688D
:102DA0009B68042213400BD07B685B6D10221A4392
:102DB0007B685A657B68502200219954012332E1D7
:102DC0007B685B6D9F4A134002221A437B685A65F9
:102DD0007B681B689B6803221340012B08D17B682A
:102DE0001B681B6801221340012B01D1012300E065
:102DF0000023002B49D17B685A68C0231B069A42E6
:102E00000BD07B685A688023DB059A4205D07B682B
:102E10005A6880231B069A4211D17B681B681A6985
:102E20007B681B68920092081A617B681B681969AD
:102E30007B685A687B681B680A431A6114E07B68E8
:102E40001B681A697B681B68920092081A617E4BA6
:102E50001A687D4B7D490A401A607B4B19687B6874
:102E60005A68794B0A431A607B681B68DA687B688A
:102E70001B6818218A43DA607B681B68D9687B6805
:102E80009A687B681B680A43DA606F4B1A686E4B5E
:102E90006F490A401A606C4B19687B685B6B5A0675
:102EA000694B0A431A607B681B689A6880235B053C
:102EB000134008D17B681B689A687B681B68802177
:102EC00049050A439A607B681B68DA687B681B685F
:102ED00060490A40DA607B681B68D9687B68DA68F9
:102EE0007B681B69022B01D1042300E000231A43F5
:102EF0007B6820201B5C5B031A437B682C201B5CD7
:102F00005B001A437B681B6B1A437B689B699B03BE
:102F10001A437B68DB69DB031A437B681B680A433F
:102F2000DA607B685A6AC223FF339A420BD07B680F
:102F30001B68D9687B685A6A7B689B6A1A437B68FE
:102F40001B680A43DA607B6821229B5C012B1AD143
:102F50007B6820229B5C002B09D17B681B68DA68A8
:102F60007B681B68802149020A43DA600BE07B68BA
:102F70005B6D20221A437B685A657B689B6D01223A
:102F80001A437B689A657B68DB6B012B1FD17B68DA
:102F90001B681A697B681B682F490A401A617B68A5
:102FA0001B6819697B681A6C7B685B6C1A437B68C9
:102FB0009B6C1A437B681B680A431A617B681B6819
:102FC0001A697B681B6801210A431A610EE07B685D
:102FD0001B681B6901221340012B07D17B681B680A
:102FE0001A697B681B6801218A431A617B681B6828
:102FF0005A697B681B6807218A435A617B681B6892
:1030000059697B689A6B7B681B680A435A617B68C5
:1030100000229A657B685B6D0322934301221A4369
:103020007B685A6500231800BD4602B080BDC046CB
:103030001F3400082F3400083F3400084F340008C4
:1030400091270008FDFEFFFF08270140FFFFC3FF97
:10305000FFFFFFFD1902FEFF03FCFFFFB0B584B0C8
:1030600000AF78600F23FB1800221A707B68002BDA
:1030700001D1012385E07B685B6D02221A437B68E6
:103080005A650F257C197B68180000F058FB030077
:1030900023707B191B78002B0DD17C197B681800DD
:1030A00000F0E6FA030023707B191B78012B02D095
:1030B0007B6801225A650F23FB181B78012B59D01E
:1030C0007B681B685A687B681B6830490A405A60F5
:1030D0007B681B682E4A1A607B681B689A687B684D
:1030E0001B682C490A409A607B681B68DA687B6819
:1030F0001B6829490A40DA607B681B681A697B688B
:103100001B6826490A401A617B681B685A697B68FC
:103110001B6807218A435A617B681B681A6A7B68AF
:103120001B681F490A401A627B681B68B4229A58C0
:103130007B681B687F218A43B4215A507B681B68D7
:10314000B4229A587B681B687F218A43B4215A5065
:103150007B681B6F002B02D17B68124A1A677B6861
:103160001B6F7A68100098477B6800229A657B681D
:1031700000225A657B685022002199540F23FB18C6
:103180001B781800BD4604B0B0BDC04660F7FFFF15
:103190009F080000FFFFFFEF00023E8302FCFF3F9D
:1031A00000F000F0C127000890B585B000AF78604E
:1031B0000F23FB1800221A707B681B689B6804228F
:1031C000134038D17B6850229B5C012B01D1022334
:1031D00038E07B685022012199547B68DB69012B20
:1031E00007D00F23FC187B68180000F0D9F9030002
:1031F00023700F23FB181B78002B20D17B685B6D9D
:10320000124A1340802252001A437B685A657B6839
:1032100000229A657B685022002199547B681B68C4
:103220001C221A607B681B689A687B681B680421F3
:103230000A439A6003E00F23FB1802221A700F233F
:10324000FB181B781800BD4605B090BDFEF0FFFFCF
:10325000B0B584B000AF78600F23FB1800221A705D
:103260007B6850229B5C012B01D1022329E07B6803
:103270005022012199540F257C197B68180000F019
:103280005EFA030023707B191B78002B12D17C1986
:103290007B68180000F0ECF9030023707B191B78A1
:1032A000002B07D17B685B6D084A134001221A434B
:1032B0007B685A657B685022002199540F23FB18C4
:1032C0001B781800BD4604B0B0BDC046FEFEFFFF2F
:1032D00080B584B000AF786039600023BB60002304
:1032E000FB607B685B69082B02D10823FB6014E05C
:1032F0007B681B68DB6801221340012B0BD17B68C4
:103300005B6D20221A437B685A657B68502200213E
:103310009954012372E00C23FB60FFF7C3FC030008
:10332000BB601FE03B6801331CD03B68002B07D01B
:10333000FFF7B8FC0200BB68D31A3A689A4211D270
:103340007B681B681B68FA6813400BD17B685B6D58
:1033500004221A437B685A657B68502200219954E5
:1033600003234BE07B681B681B68FA681340D9D0C5
:103370007B685B6D802292001A437B685A657B688C
:103380001B68DA68C0231B0113402ED17B68202202
:103390009B5C002B29D17B681B681B6808221340AB
:1033A000082B22D17B681B689B680422134010D134
:1033B0007B681B685A687B681B680C218A435A60CB
:1033C0007B685B6D0F4A134001221A437B685A6584
:1033D0000BE07B685B6D20221A437B685A657B6833
:1033E0009B6D01221A437B689A657B689B69002B61
:1033F00003D17B681B680C221A6000231800BD46AD
:1034000004B080BDFEFEFFFF80B582B000AF7860E3
:103410007B681B681B6C1800BD4602B080BD80B580
:1034200082B000AF7860C046BD4602B080BD80B5B6
:1034300082B000AF7860C046BD4602B080BD80B5A6
:1034400082B000AF7860C046BD4602B080BD80B596
:1034500082B000AF7860C046BD4602B080BD0000BB
:1034600080B582B000AF786039607B6850229B5C89
:10347000012B01D1022385E07B6850220121995460
:103480007B681B689B68042213400BD07B685B6DD4
:1034900020221A437B685A657B6850220021995488
:1034A00001236FE03B685B68384A934235D07B6804
:1034B0001B68996A3B681B685B035A0B7B681B6837
:1034C0000A439A623B681A688023DB02134009D0E2
:1034D0002F4B1A682E4B802109040A431A600A20D8
:1034E00000F07AF93B681A6880239B02134006D0EB
:1034F000274B1A68264B8021C9030A431A603B6890
:103500001A6880235B02134037D0214B1A68204B86
:10351000802149040A431A602FE07B681B689A6A7D
:103520003B681B685B035B0BD9437B681B680A40E5
:103530009A623B681A688023DB02134005D0144B63
:103540001A68134B13490A401A603B681A688023B3
:103550009B02134005D00E4B1A680D4B0E490A40D2
:103560001A603B681A6880235B02134005D0084B41
:103570001A68074B09490A401A607B6850220021EB
:10358000995400231800BD4602B080BD0110000010
:1035900008270140FFFF7FFFFFFFBFFFFFFFFFFE88
:1035A00080B584B000AF78600023FB607B681B6847
:1035B0009B6803221340012B08D17B681B681B68A2
:1035C00001221340012B01D1012300E00023002B35
:1035D00046D17B681B689B68244A13400DD07B68EA
:1035E0005B6D10221A437B685A657B689B6D0122D4
:1035F0001A437B689A65012333E07B681B689A68ED
:103600007B681B6801210A439A60012000F0E4F8FE
:10361000FFF748FB0300FB601BE0FFF743FB0200E2
:10362000FB68D31A0A2B14D97B681B681B6801221C
:103630001340012B0DD07B685B6D10221A437B6811
:103640005A657B689B6D01221A437B689A6501234A
:1036500007E07B681B681B6801221340012BDCD14B
:1036600000231800BD4604B080BDC046170000808E
:1036700080B584B000AF78600023FB607B681B6876
:103680009B6803221340012B08D17B681B681B68D1
:1036900001221340012B01D1012300E00023002B64
:1036A00048D07B681B689B6805221340012B10D112
:1036B0007B681B689A687B681B6802210A439A60D2
:1036C0007B681B6803221A60FFF7ECFA0300FB60BB
:1036D00029E07B685B6D10221A437B685A657B6822
:1036E0009B6D01221A437B689A65012323E0FFF753
:1036F000D9FA0200FB68D31A0A2B14D97B681B681D
:103700009B6801221340012B0DD17B685B6D102259
:103710001A437B685A657B689B6D01221A437B685C
:103720009A65012307E07B681B689B6801221340B0
:10373000012BDCD000231800BD4604B080BD80B54D
:1037400084B000AF78600023FB607B681B689B68D7
:10375000042213403AD07B681B689B680422134004
:10376000042B0DD17B681B689B680222134007D194
:103770007B681B689A687B681B6810210A439A6003
:10378000FFF790FA0300FB601AE0FFF78BFA0200E4
:10379000FB68D31A0A2B13D97B681B689B68042229
:1037A00013400DD07B685B6D10221A437B685A650D
:1037B0007B689B6D01221A437B689A65012306E0B2
:1037C0007B681B689B6804221340DED1002318002D
:1037D000BD4604B080BD000080B584B000AF786005
:1037E0000B4B1B680B491800FCF79EFC03001A00EA
:1037F0007B685343FB6002E0FB68013BFB60FB68B6
:10380000002BF9D1C046C046BD4604B080BDC046BD
:103810000000002040420F0080B582B000AF0200DF
:10382000FB1D1A70FB1D1B787F2B09D8FB1D1B7815
:103830001A001F231A40044B012191400A001A600C
:10384000C046BD4602B080BD00E100E090B583B047
:1038500000AF02003960FB1D1A70FB1D1B787F2B27
:1038600028D82F4AFB1D1B785BB29B08C0339B00F6
:103870009B58FA1D1278110003220A40D200FF2142
:1038800091400A00D2431A4011003B689B01FF227D
:103890001A40FB1D1B78180003230340DB009A40ED
:1038A0001F48FB1D1B785BB29B080A43C0339B007B
:1038B0001A5031E01B4AFB1D1B7819000F230B40E7
:1038C000083B9B0806339B00D31804331B68FA1D82
:1038D0001278110003220A40D200FF2191400A0011
:1038E000D2431A4011003B689B01FF221A40FB1D86
:1038F0001B78180003230340DB009A400948FB1D96
:103900001B781C000F232340083B9B080A43063307
:103910009B00C31804331A60C046BD4603B090BD77
:1039200000E100E000ED00E080B582B000AF78601B
:103930007B685A1E80235B049A4201D3012310E066
:103940000A4B7A68013A5A6001235B42032118004E
:10395000FFF77CFF054B00229A60044B07221A6098
:1039600000231800BD4602B080BDC04610E000E054
:1039700080B584B000AFB9607A600F217B18021C5B
:103980001A70BA687B181B785BB211001800FFF739
:103990005DFFC046BD4604B080BD80B582B000AFBB
:1039A0000200FB1D1A70FB1D1B785BB21800FFF7AD
:1039B00033FFC046BD4602B080BD80B582B000AFC7
:1039C00078607B681800FFF7AFFF03001800BD4662
:1039D00002B080BD80B584B000AF78607B68002BFA
:1039E00001D1012361E07B681B68324A944663443D
:1039F00014211800FCF798FB03009A007B685A64B6
:103A00007B682D4A1A647B682522022199547B68C1
:103A10001B681B68FB60FB68284A1340FB607B68DF
:103A20009A687B68DB681A437B681B691A437B686A
:103A30005B691A437B689B691A437B68DB691A439D
:103A40007B681B6A1343FA681343FB607B681B683F
:103A5000FA681A607B689A688023DB019A4218D062
:103A6000174B1A687B685B6C1C210B400F21994037
:103A70000B00D943124B0A401A60114B19687B683E
:103A80005A687B685B6C1C2003409A400C4B0A43CD
:103A90001A607B680022DA637B6825220121995431
:103AA0007B6824220021995400231800BD4604B0ED
:103AB00080BDC046F8FFFDBF000002400F80FFFF41
:103AC000A800024080B582B000AF78607B68002B10
:103AD00001D101234AE07B681B681A687B681B6878
:103AE00001218A431A607B681B68224A944663441A
:103AF00014211800FCF718FB03009A007B685A6435
:103B00007B681D4A1A647B681B6800221A607B6808
:103B10005B6C1C221A407B681B6C012191400A00DF
:103B20005A60164B1A687B685B6C1C210B400F2196
:103B300099400B00D943114B0A401A607B68002260
:103B4000DA627B6800221A637B6800225A637B6812
:103B500000229A637B680022DA637B6825220021B9
:103B600099547B6824220021995400231800BD46F3
:103B700002B080BDF8FFFDBF00000240A800024077
:103B800080B584B000AF78607B681B6C1B68FB60FD
:103B90007B681B681B68BB607B685B6C1C221340E6
:103BA00004229A401300FA68134026D0BB6804220E
:103BB000134022D07B681B681B682022134007D16A
:103BC0007B681B681A687B681B6804218A431A603B
:103BD0007B685B6C1C221A407B681B6C0421914043
:103BE0000A005A607B681B6B002B00D171E07B6878
:103BF0001B6B7A68100098476BE07B685B6C1C223B
:103C0000134002229A401300FA6813402DD0BB687B
:103C10000222134029D07B681B681B6820221340B6
:103C20000BD17B681B681A687B681B680A218A4372
:103C30001A607B682522012199547B685B6C1C22E9
:103C40001A407B681B6C022191400A005A607B6815
:103C50002422002199547B68DB6A002B39D07B68D1
:103C6000DB6A7A681000984733E07B685B6C1C2243
:103C7000134008229A401300FA6813402AD0BB6808
:103C80000822134026D07B681B681A687B681B6873
:103C90000E218A431A607B685B6C1C221A407B6889
:103CA0001B6C012191400A005A607B680122DA6393
:103CB0007B682522012199547B6824220021995494
:103CC0007B685B6B002B05D07B685B6B7A681000B0
:103CD0009847C046C046BD4604B080BD80B586B09A
:103CE00000AF7860396000237B610023FB60002314
:103CF0003B614FE13B681B6801217A6991400A00F2
:103D00001340FB60FB68002B00D140E13B685B681F
:103D100003221340012B05D03B685B68032213404C
:103D2000022B30D17B689B683B617B695B0003227F
:103D30009A401300DA433B6913403B613B68DA6801
:103D40007B695B009A4013003A6913433B617B68CF
:103D50003A699A607B685B683B6101227B699A40A3
:103D60001300DA433B6913403B613B685B681B0906
:103D700001221A407B699A4013003A6913433B6160
:103D80007B683A695A603B685B6803221340032BE7
:103D900017D07B68DB683B617B695B0003229A403C
:103DA0001300DA433B6913403B613B689A687B69C7
:103DB0005B009A4013003A6913433B617B683A69A0
:103DC000DA603B685B6803221340022B23D17B69D6
:103DD000DA087B6808329200D3583B617B6907227E
:103DE00013409B000F229A401300DA433B691340B3
:103DF0003B613B681A697B6907210B409B009A4035
:103E000013003A6913433B617B69DA087B68083227
:103E100092003969D1507B681B683B617B695B000C
:103E200003229A401300DA433B6913403B613B682D
:103E30005B6803221A407B695B009A4013003A6971
:103E400013433B617B683A691A603B685A68C02338
:103E50009B02134000D19AE0544B5A6B534B012103
:103E60000A435A63524A7B699B0802339B009B5862
:103E70003B617B69032213409B000F229A40130091
:103E8000DA433B6913403B617A68A023DB059A4221
:103E900019D07B68474A934213D07B68464A9342C5
:103EA0000DD07B68454A934207D07B68444A9342D1
:103EB00001D1052308E0062306E0032304E00223E2
:103EC00002E0012300E000237A6903210A40920006
:103ED00093403A6913433B6135497B699B08023340
:103EE0009B003A695A50374B9B683B61FB68DA4349
:103EF0003B6913403B613B685A6880235B03134076
:103F000003D03A69FB6813433B612E4B3A699A60D0
:103F10002C4BDB683B61FB68DA433B6913403B6138
:103F20003B685A6880239B03134003D03A69FB68BF
:103F300013433B61234B3A69DA60224B5B683B6178
:103F4000FB68DA433B6913403B613B685A68802356
:103F50009B02134003D03A69FB6813433B61194B42
:103F60003A695A60174B1B683B61FB68DA433B694F
:103F700013403B613B685A6880235B02134003D0C7
:103F80003A69FB6813433B610E4B3A691A607B69DF
:103F900001337B613B681A687B69DA40131E00D0ED
:103FA000A8E6C046C046BD4606B080BD001002402F
:103FB000000001400004005000080050000C0050B8
:103FC000001C00500004014080B586B000AF78604E
:103FD000396000237B6100233B610023FB60B6E076
:103FE00001227B699A403B6813403B613B69002B8F
:103FF00000D1A9E05B4A7B699B0802339B009B5878
:10400000FB607B69032213409B000F229A40FB68F0
:104010001340FB607A68A023DB059A4219D07B68C5
:10402000514A934213D07B68504A93420DD07B682B
:104030004F4A934207D07B684E4A934201D10523F1
:1040400008E0062306E0032304E0022302E0012344
:1040500000E000237A6903210A4092009340FA6845
:104060009A4232D1444B1A683B69D943424B0A40C9
:104070001A60414B5A683B69D9433F4B0A405A602A
:104080003D4BDA683B69D9433B4B0A40DA603A4B17
:104090009A683B69D943384B0A409A607B6903228E
:1040A00013409B000F229A401300FB602D4A7B694E
:1040B0009B0802339B009A58FB68D94329487B69C7
:1040C0009B080A4002339B001A507B681A687B6980
:1040D0005B00032199400B001A437B681A607B69DF
:1040E000DA087B6808329200D3587A6907210A40BF
:1040F00092000F2191400A00D1437A69D2081940F9
:104100007B6808329200D1507B68DB687A69520084
:10411000032191400A00D2431A407B68DA607B6831
:104120005B6801217A6991400A00D2431A407B689A
:104130005A607B689B687A695200032191400A00AB
:10414000D2431A407B689A607B6901337B613A688D
:104150007B69DA40131E00D042E7C046C046BD4628
:1041600006B080BD0000014000040050000800506F
:10417000000C0050001C00500004014080B582B0CB
:1041800000AF786008001100BB1C021C1A807B1C69
:104190000A1C1A707B1C1B78002B04D0BB1C1A88CD
:1041A0007B689A6103E0BB1C1A887B689A62C046F0
:1041B000BD4602B080BD000080B582B000AF78601F
:1041C0007B68002B01D1012382E07B6841229B5C4C
:1041D000DBB2002B07D17B684022002199547B6819
:1041E0001800FEF707FB7B684122242199547B6865
:1041F0001B681A687B681B6801218A431A607B6808
:104200005A687B681B6834490A401A617B681B68DE
:104210009A687B681B6831490A409A607B68DB6852
:10422000012B08D17B689A687B681B688021090292
:104230000A439A6007E07B689A687B681B68842160
:1042400009020A439A607B68DB68022B04D17B6811
:104250001B68802212015A607B681B685A687B6861
:104260001B681F490A435A607B681B68DA687B68D1
:104270001B681A490A40DA607B681A697B685B69C7
:104280001A4311007B689B691A027B681B680A430A
:10429000DA607B68D9697B681A6A7B681B680A43A5
:1042A0001A607B681B681A687B681B6801210A43D7
:1042B0001A607B6800225A647B684122202199544D
:1042C0007B6800221A637B684222002199540023F4
:1042D0001800BD4602B080BDFFFFFFF0FF7FFFFF6B
:1042E0000080000280B582B000AF78607B68002B50
:1042F00001D1012322E07B684122242199547B686B
:104300001B681A687B681B6801218A431A607B68F6
:104310001800FEF7B5FA7B6800225A647B684122D8
:10432000002199547B6800221A637B684222002195
:1043300099547B6840220021995400231800BD46FF
:1043400002B080BD90B589B002AFF8600C001000DB
:1043500019000A23FB18221C1A800823FB18021CD0
:104360001A80BB1D0A1C1A80FB6841229B5CDBB2D1
:10437000202B00D00CE1BB6A002B04D02C23FB18AF
:104380001B88002B05D1FB68802292005A64012310
:10439000FFE0FB6840229B5C012B01D10223F8E087
:1043A000FB68402201219954FEF77CFC03007B61ED
:1043B00080231902F8687B6900931923012200F019
:1043C0000BFB031E01D00123E3E0FB684122212106
:1043D0009954FB68422240219954FB6800225A6498
:1043E000FB68BA6A5A62FB682C22BA1812885A858E
:1043F000FB6800225A63BB1D1C880823FB181A881F
:104400000A23FB181988F8687B6901933B6B0093BA
:10441000230000F0F9F9031E05D0FB6840220021BB
:1044200099540123B5E0FB685B8D9BB2FF2B11D93A
:10443000FB68FF221A85FB681B8DDAB280235C04BF
:104440000A23FB181988F86800230093230000F062
:104450009BFC12E0FB685B8D9AB2FB681A85FB68D7
:104460001B8DDAB280239C040A23FB181988F86894
:1044700000230093230000F087FC7A69396BFB6806
:10448000180000F0F7FA031E01D0012381E0FB6859
:104490005B6A1A78FB681B689A62FB685B6A5A1C45
:1044A000FB685A62FB685B8D9BB2013B9AB2FB686A
:1044B0005A85FB681B8D013B9AB2FB681A85FB6825
:1044C0005B8D9BB2002B3AD0FB681B8D002B36D145
:1044D0003A6BF8687B69009313000022802100F09A
:1044E0007BFA031E01D0012353E0FB685B8D9BB276
:1044F000FF2B11D9FB68FF221A85FB681B8DDAB2EE
:1045000080235C040A23FB181988F86800230093B1
:10451000230000F039FC12E0FB685B8D9AB2FB6867
:104520001A85FB681B8DDAB280239C040A23FB18D2
:104530001988F86800230093230000F025FCFB682D
:104540005B8D9BB2002B98D17A69396BFB681800A0
:1045500000F0D6FA031E01D001231AE0FB681B68A5
:104560002022DA61FB681B685A68FB681B680B49EC
:104570000A405A60FB68412220219954FB6842227C
:1045800000219954FB68402200219954002300E047
:1045900002231800BD4607B090BDC04600E800FEEB
:1045A00090B589B002AFF8600C00100019000A2322
:1045B000FB18221C1A800823FB18021C1A80BB1D42
:1045C0000A1C1A80FB6841229B5CDBB2202B00D0C6
:1045D00010E1BB6A002B04D02C23FB181B88002B96
:1045E00005D1FB68802292005A64012303E1FB6835
:1045F00040229B5C012B01D10223FCE0FB6840229E
:1046000001219954FEF74EFB03007B6180231902C0
:10461000F8687B6900931923012200F0DDF9031E7D
:1046200001D00123E7E0FB68412222219954FB6875
:10463000422240219954FB6800225A64FB68BA6AFE
:104640005A62FB682C22BA1812885A85FB6800222D
:104650005A63BB1D1C880823FB181A880A23FB1801
:104660001988F8687B6901933B6B0093230000F085
:104670002FF9031E05D0FB68402200219954012325
:10468000B9E0FB685B8D9BB2FF2B11D9FB68FF2261
:104690001A85FB681B8DDAB280235C040A23FB18A1
:1046A0001988F868564B0093230000F06DFB12E068
:1046B000FB685B8D9AB2FB681A85FB681B8DDAB2CA
:1046C00080239C040A23FB181988F8684C4B00933C
:1046D000230000F059FB3A6BF8687B6900931300E4
:1046E0000022042100F078F9031E01D0012382E0AA
:1046F000FB681B685A6AFB685B6AD2B21A70FB6877
:104700005B6A5A1CFB685A62FB681B8D013B9AB2BC
:10471000FB681A85FB685B8D9BB2013B9AB2FB6814
:104720005A85FB685B8D9BB2002B3AD0FB681B8DD2
:10473000002B36D13A6BF8687B6900931300002296
:10474000802100F049F9031E01D0012353E0FB68EA
:104750005B8D9BB2FF2B11D9FB68FF221A85FB688A
:104760001B8DDAB280235C040A23FB181988F868D1
:1047700000230093230000F007FB12E0FB685B8D31
:104780009AB2FB681A85FB681B8DDAB280239C0401
:104790000A23FB181988F86800230093230000F00F
:1047A000F3FAFB685B8D9BB2002B94D17A69396B6D
:1047B000FB68180000F0A4F9031E01D001231AE0E1
:1047C000FB681B682022DA61FB681B685A68FB687B
:1047D0001B680C490A405A60FB6841222021995409
:1047E000FB68422200219954FB6840220021995421
:1047F000002300E002231800BD4607B090BDC0466C
:104800000024008000E800FEB0B586B002AFF8607A
:104810000C00100019000A257B19221C1A8008239D
:10482000FB18021C1A80BB1D0A1C1A80BB1D1B88AA
:10483000DAB280235C047B191988F868234B009353
:10484000230000F0A1FA7A6A396AFB68180000F0C8
:1048500011F9031E01D0012333E0BB1D1B88012B7E
:1048600007D10823FB181B88DAB2FB681B689A6221
:1048700019E00823FB181B881B0A9BB2DAB2FB68FD
:104880001B689A627A6A396AFB68180000F0F2F8CD
:10489000031E01D0012314E00823FB181B88DAB2A1
:1048A000FB681B689A623A6AF8687B6A0093130097
:1048B0000022802100F090F8031E01D0012300E0C7
:1048C00000231800BD4604B0B0BDC04600200080E3
:1048D000B0B586B002AFF8600C00100019000A25D0
:1048E0007B19221C1A800823FB18021C1A80BB1D8E
:1048F0000A1C1A80BB1D1B88DAB27B191988F8685C
:10490000234B0093002300F03FFA7A6A396AFB6870
:10491000180000F0AFF8031E01D0012333E0BB1DE7
:104920001B88012B07D10823FB181B88DAB2FB6810
:104930001B689A6219E00823FB181B881B0A9BB2AC
:10494000DAB2FB681B689A627A6A396AFB681800F7
:1049500000F090F8031E01D0012314E00823FB1897
:104960001B88DAB2FB681B689A623A6AF8687B6A4D
:10497000009313000022402100F02EF8031E01D006
:10498000012300E000231800BD4604B0B0BDC046BE
:104990000020008080B582B000AF78607B681B6823
:1049A0009B6902221340022B03D17B681B68002203
:1049B0009A627B681B689B6901221340012B07D018
:1049C0007B681B689A697B681B6801210A439A61AE
:1049D000C046BD4602B080BD80B584B000AFF8606F
:1049E000B9603B60FB1D1A7030E03B6801332DD08D
:1049F000FEF758F90200BB69D31A3A689A4202D30B
:104A00003B68002B22D1FB681B689B69BA68134086
:104A1000BA68D31A5A425341DBB21A00FB1D1B7805
:104A20009A4213D1FB685B6C20221A43FB685A64DC
:104A3000FB68412220219954FB68422200219954AD
:104A4000FB6840220021995401230FE0FB681B689A
:104A50009B69BA681340BA68D31A5A425341DBB211
:104A60001A00FB1D1B789A42BFD000231800BD46D8
:104A700004B080BD80B584B000AFF860B9607A60E2
:104A800032E07A68B968FB68180000F07DF8031E10
:104A900001D0012330E0BB68013325D0FEF702F9D5
:104AA00002007B68D31ABA689A4202D3BB68002B13
:104AB0001AD1FB681B689B6902221340022B13D09A
:104AC000FB685B6C20221A43FB685A64FB68412236
:104AD00020219954FB68422200219954FB6840220E
:104AE00000219954012307E0FB681B689B6902229F
:104AF0001340022BC5D100231800BD4604B080BD71
:104B000080B584B000AFF860B9607A602FE07A6851
:104B1000B968FB68180000F037F8031E01D00123C4
:104B20002DE0FEF7BFF802007B68D31ABA689A42FC
:104B300002D3BB68002B1AD1FB681B689B6920223B
:104B40001340202B13D0FB685B6C20221A43FB68B8
:104B50005A64FB68412220219954FB6842220021BB
:104B60009954FB68402200219954012307E0FB6817
:104B70001B689B6920221340202BC8D100231800FA
:104B8000BD4604B080BD000090B58BB000AFF860AA
:104B9000B9607A602723FB1800221A70FB681B6833
:104BA0009B69BB6100233B627B68FB61BB69102290
:104BB000134000D182E0FB681B681022DA6160E0DC
:104BC00027243B193A1912781A70BB68013358D060
:104BD000FEF768F80200FB69D31ABA689A4206D356
:104BE0003B193A1912781A70BB68002B49D1FB683F
:104BF0001B685A688023DB0113407B6113203B183C
:104C0000FA684221525C1A70FB681B689A6980231B
:104C10001B021A4080231B029A4226D17A69802304
:104C2000DB019A4221D03B181B78202B1DD0FB685A
:104C30001B685A68FB681B688021C9010A435A60D7
:104C4000FEF730F80300FB610FE0FEF72BF80200DF
:104C5000FB69D31A192B08D93B6A202213433B6204
:104C60002723FB1801221A700BE0FB681B689B6965
:104C70002022134027217A18791809781170202BE7
:104C8000E3D1FB681B689B6920221340202B04D0D2
:104C90002723FB181B78002B92D02723FB181B78A7
:104CA000002B03D1FB681B682022DA613B6A0422D7
:104CB00013433B622723FB1801221A70FB681B6811
:104CC0009B69BB61BA6980235B0013400CD03B6ACF
:104CD000012213433B62FB681B6880225200DA61A9
:104CE0002723FB1801221A70BA698023DB001340C6
:104CF0000CD03B6A082213433B62FB681B6880228E
:104D0000D200DA612723FB1801221A70BA698023C6
:104D10009B0013400CD03B6A022213433B62FB68AA
:104D20001B6880229200DA612723FB1801221A7087
:104D30002723FB181B78002B1DD0FB681800FFF7FA
:104D400029FEFB681B685A68FB681B680D490A400E
:104D50005A60FB685A6C3B6A1A43FB685A64FB68EA
:104D6000412220219954FB68422200219954FB687A
:104D70004022002199542723FB181B781800BD46B8
:104D80000BB090BD00E800FE90B587B000AFF860B2
:104D9000080011007B600A243B19021C1A800920BC
:104DA0003B180A1C1A703B191B889B059A0D3B186F
:104DB0001B781904FF231B040B401A437B681A431A
:104DC000BB6A13435B005B087B61FB681B685B6825
:104DD000BA6A510D8022D2000A4007490A43D243E1
:104DE0001A401100FB681B687A690A435A60C04682
:104DF000BD4607B090BDC046FF63FF0380B582B0DB
:104E000000AF786039607B6841229B5CDBB2202B6D
:104E100038D17B6840229B5C012B01D1022332E018
:104E20007B684022012199547B68412224219954B6
:104E30007B681B681A687B681B6801218A431A60BB
:104E40007B681B681A687B681B6811490A401A60F6
:104E50007B681B6819687B681B683A680A431A609C
:104E60007B681B681A687B681B6801210A431A600B
:104E70007B684122202199547B684022002199546B
:104E8000002300E002231800BD4602B080BDC046EA
:104E9000FFEFFFFF80B584B000AF786039607B68BA
:104EA00041229B5CDBB2202B39D17B6840229B5C8A
:104EB000012B01D1022333E07B6840220121995468
:104EC0007B684122242199547B681B681A687B689F
:104ED0001B6801218A431A607B681B681B68FB60A2
:104EE000FB68114A1340FB603B681B02FA681343DE
:104EF000FB607B681B68FA681A607B681B681A682D
:104F00007B681B6801210A431A607B6841222021CB
:104F100099547B68402200219954002300E0022329
:104F20001800BD4604B080BDFFF0FFFF80B500AFA4
:104F3000044B1A68034B802149000A431A60C0469B
:104F4000BD4680BD0070004080B586B000AF78607F
:104F50000A00FB1C1A7000237B61254B1A68802312
:104F60009B0013403B61234B1B6A01221340FB60F3
:104F70003B69002B08D0FB68002B05D01C4B1A683E
:104F80001B4B1D490A401A60194B1B687B617B69EA
:104F9000032293437B617A697B6813437B61144BE3
:104FA0007A691A60154B1A69144B04210A431A6175
:104FB000FB1C1B78012B01D130BF02E040BF20BF9A
:104FC00020BF0E4B1A690D4B04218A431A613B69BD
:104FD000002B09D0FB68002B06D0054B1A68044B48
:104FE000802189000A431A60C046BD4606B080BDD4
:104FF0000070004000000140FFFDFFFF00ED00E0F9
:1050000080B500AF044B1A68034B802189000A4326
:105010001A60C046BD4680BD00700040B0B58AB081
:1050200000AF78607B68002B02D1012300F0AFFB5A
:10503000CF4BDB680C2213403B62CD4BDA688023F8
:105040005B021340FB617B681B680122134000D1A7
:105050007EE03B6A082B07D03B6A0C2B12D1FA6921
:1050600080235B029A420DD1C14B1A6880239B02B8
:10507000134000D16BE07B685B68002B67D1012394
:1050800000F085FB7B685A6880235B029A4207D157
:10509000B74B1A68B64B802149020A431A6027E0D1
:1050A0007B685A68A023DB029A420ED1B04B1A6883
:1050B000AF4B8021C9020A431A60AD4B1A68AC4B52
:1050C000802149020A431A6012E0A94B1A68A84BD2
:1050D000A8490A401A60A64B1A6880235B02134055
:1050E000FB60FB68A24B1A68A14BA3490A401A60F7
:1050F0007B685B68002B15D0FDF7D4FD0300BB6116
:1051000009E0FDF7CFFD0200BB69D31A642B02D979
:10511000032300F03CFB964B1A6880239B0213404C
:10512000EFD015E0FDF7BEFD0300BB6108E0FDF721
:10513000B9FD0200BB69D31A642B01D9032326E30E
:105140008B4B1A6880239B021340F0D100E0C046CD
:105150007B681B680222134000D18BE07B68DB6810
:105160007B613B6A042B05D03B6A0C2B3ED1FB696B
:10517000002B3BD17E4B1B680422134004D07B697B
:10518000002B01D1012302E3794B5B687B4A13407A
:1051900019007B681B691A02754B0A435A60744BED
:1051A0001B68092293431900714B7A690A431A60FC
:1051B00000F040FC01006E4BDB681B090F2213401E
:1051C0006F4AD35C0A00DA406E4B1A606E4B1B6864
:1051D00013257C191800FDF71FFD030023707B19B0
:1051E0001B78002B46D07B191B78D0E27B69002B03
:1051F00027D05F4B1B680922934319005C4B7A69E7
:105200000A431A60FDF74EFD0300BB6108E0FDF79D
:1052100049FD0200BB69D31A022B01D90323B6E270
:10522000534B1B6804221340F1D0514B5B68534A27
:10523000134019007B681B691A024D4B0A435A60E0
:1052400018E04B4B1A684A4B01218A431A60FDF75C
:1052500029FD0300BB6108E0FDF724FD0200BB69E6
:10526000D31A022B01D9032391E2414B1B6804227C
:105270001340F1D17B681B681022134000D1A1E0DC
:105280003B6A002B40D13A4B1A6880239B001340A5
:1052900005D07B68DB69002B01D1012377E2344B19
:1052A0005B683A4A134019007B685A6A304B0A43DC
:1052B0005A602F4B5B681B02190A7B681B6A1A062F
:1052C0002B4B0A435A607B685B6A5B0B013380227D
:1052D00012029A40264BDB681B090F210B4028491C
:1052E000CB5CDA40274B1A60274B1B6813257C19CF
:1052F0001800FDF791FC030023707B191B78002B2D
:1053000060D07B191B7842E27B68DB69002B3FD0C1
:10531000174B1A68164B802149000A431A60FDF7A3
:10532000C1FC0300BB6108E0FDF7BCFC0200BB69E7
:10533000D31A022B01D9032329E20D4B1A688023CB
:105340009B001340F0D00A4B5B68104A13401900D1
:105350007B685A6A064B0A435A60054B5B681B021E
:10536000190A7B681B6A1A06014B0A435A6029E036
:1053700000100240FFFFFEFFFFFFFBFFFFE0FFFF0B
:10538000E88600080000002004000020FF1FFFFF47
:10539000BD4B1A68BC4BBD490A401A60FDF782FC40
:1053A0000300BB6108E0FDF77DFC0200BB69D31A76
:1053B000022B01D90323EAE1B34B1A6880239B0037
:1053C0001340F0D17B681B680822134036D07B68FD
:1053D0005B69002B19D0AC4B1A6DAB4B01210A4312
:1053E0001A65FDF75FFC0300BB6108E0FDF75AFC9E
:1053F0000200BB69D31A022B01D90323C7E1A24BD8
:105400001B6D02221340F1D018E09F4B1A6D9E4B8A
:1054100001218A431A65FDF745FC0300BB6108E0E2
:10542000FDF740FC0200BB69D31A022B01D903230C
:10543000ADE1954B1B6D02221340F1D17B681B68D7
:105440000422134000D1AEE027203B1800221A703E
:105450008D4B9A6B80235B05134009D18A4B9A6B65
:10546000894B802149050A439A633B1801221A702F
:10547000874B1A6880235B0013401AD1844B1A684B
:10548000834B802149000A431A60FDF70BFC03009F
:10549000BB6108E0FDF706FC0200BB69D31A642B70
:1054A00001D9032373E17A4B1A6880235B00134010
:1054B000F0D07B689A6880235B009A4207D1724BD8
:1054C0001A6D714B802149000A431A6531E07B68EF
:1054D0009B68002B0CD16C4B1A6D6B4B6B490A40CF
:1054E0001A65694B1A6D684B6A490A401A6520E0D3
:1054F0007B689A68A023DB009A420ED1624B1A6D3A
:10550000614B8021C9000A431A655F4B1A6D5E4BDF
:10551000802149000A431A650BE05B4B1A6D5A4B18
:105520005A490A401A65584B1A6D574B59490A4057
:105530001A657B689B68002B15D0FDF7B3FB030051
:10554000BB6109E0FDF7AEFB0200BB69D31A524A0A
:10555000934201D903231AE14B4B1A6D80239B0020
:105560001340EFD014E0FDF79DFB0300BB6109E0A1
:10557000FDF798FB0200BB69D31A474A934201D951
:10558000032304E1404B1A6D80239B001340EFD1AD
:105590002723FB181B78012B05D13B4B9A6B3A4B09
:1055A0003E490A409A637B681B682022134049D019
:1055B0007B689B69002B26D0334B9A68324B0121C4
:1055C0000A439A60304B5A6B2F4B01210A435A63AE
:1055D000334B1A6A324B802189010A431A62FDF764
:1055E00061FB0300BB6108E0FDF75CFB0200BB69E7
:1055F000D31A022B01D90323C9E0234B9B68022253
:105600001340F1D01EE0204B9A681F4B01218A43C2
:105610009A60234B1A6A224B22490A401A62FDF70C
:1056200041FB0300BB6108E0FDF73CFB0200BB69E6
:10563000D31A022B01D90323A9E0134B9B68022242
:105640001340F1D17B689B6A002B00D19EE03B6A3E
:105650000C2B00D177E07B689B6A022B58D10A4B58
:105660001A68094B10490A401A60FDF71BFB03003A
:10567000BB611BE0FDF716FB0200BB69D31A022BCE
:1056800014D9032383E0C04600100240FFFEFFFF51
:1056900000700040FFFBFFFF88130000FFFFFFEFDB
:1056A00000000140FFDFFFFFFFFFFFFE3A4B1A68DB
:1056B00080239B041340DDD1374BDB68374A13400E
:1056C00019007B68DA6A7B681B6B1A437B685B6B2B
:1056D0001A43314B0A43DA602F4B1A682E4B802154
:1056E00049040A431A60FDF7DDFA0300BB6108E0D4
:1056F000FDF7D8FA0200BB69D31A022B01D90323A4
:1057000045E0254B1A6880239B041340F0D03DE010
:10571000214B1A68204B22490A401A60FDF7C2FA51
:105720000300BB6108E0FDF7BDFA0200BB69D31AB4
:10573000022B01D903232AE0174B1A6880239B040C
:105740001340F0D122E07B689B6A012B01D1012339
:105750001DE0114BDB68FB61FA6980235B021A4094
:105760007B68DB6A9A420FD1FA69F0239B031A40E7
:105770007B681B6B9A4207D1FA69C0231B041A404D
:105780007B685B6B9A4201D0012300E00023180084
:10579000BD460AB0B0BDC04600100240FFFF02FF88
:1057A000FFFFFFFEB0B584B000AF786039607B6862
:1057B000002B01D1012328E1964B1B6801221340E5
:1057C0003A689A421ED9934B1B68012293431900F1
:1057D000904B3A680A431A60FDF764FA0300FB60D5
:1057E00009E0FDF75FFA0200FB68D31A8A4A934288
:1057F00001D9032309E1874B1B68012213403A6852
:105800009A42EED17B681B680222134009D0834B79
:10581000DB68F022934319007B689A687F4B0A4348
:10582000DA607B681B680122134000D189E07B6845
:105830005B68022B07D1794B1A6880239B021340C7
:1058400020D10123E1E07B685B68032B07D1734B18
:105850001A6880239B04134014D10123D5E07B6890
:105860005B68012B06D16D4B1B680422134009D1E4
:105870000123CAE0694B1A6880239B00134001D1C1
:105880000123C2E0654BDB680322934319007B6868
:105890005A68624B0A43DA60FDF704FA0300FB60C2
:1058A0007B685B68022B11D109E0FDF7FBF9020070
:1058B000FB68D31A584A934201D90323A5E0574BFA
:1058C000DB680C221340082BEFD13AE07B685B6861
:1058D000032B11D109E0FDF7E5F90200FB68D31AAB
:1058E0004D4A934201D903238FE04C4BDB680C22D5
:1058F00013400C2BEFD124E07B685B68012B1BD19C
:1059000009E0FDF7CFF90200FB68D31A424A93423F
:1059100001D9032379E0414BDB680C221340042BAF
:10592000EFD10EE0FDF7BEF90200FB68D31A3A4A48
:10593000934201D9032368E0384BDB680C22134003
:10594000F0D1344B1B68012213403A689A421ED2B0
:10595000304B1B680122934319002E4B3A680A43CF
:105960001A60FDF79FF90300FB6009E0FDF79AF963
:105970000200FB68D31A284A934201D9032344E06A
:10598000244B1B68012213403A689A42EED17B688F
:105990001B680422134009D0204BDB68204A1340C7
:1059A00019007B68DA681D4B0A43DA607B681B6864
:1059B000082213400AD0194BDB681A4A1340190019
:1059C0007B681B69DA00154B0A43DA6000F032F895
:1059D0000100124BDB681B090F221340124AD35CF3
:1059E0000A00DA40114B1A60114B1B680B257C1919
:1059F0001800FDF711F9030023707B191B78002BA9
:105A000002D07B191B7800E000231800BD4604B0CB
:105A1000B0BDC046002002408813000000100240C4
:105A2000FFF8FFFFFFC7FFFFE88600080000002027
:105A300004000020B0B58EB000AF4C4BDB68FB62B9
:105A4000FA6A0C2313400C2B14D000D97BE0042BF2
:105A500002D0082B0BD076E0444B1B681022134079
:105A600002D0434B3B637CE0424B3B6379E0424BCB
:105A70003B6376E0FB6A9A0C0F231A403F4B9B5C1A
:105A8000BB62FB6A9A0D0323134001337B62374BE1
:105A9000DA6880235B0213401AD0BB6ABB61002323
:105AA000FB61354A0023B869F969FAF7D3FC0200B3
:105AB0000B00100019007B6A3B6100237B613A698F
:105AC0007B69FAF7A7FC02000B0013007B6337E049
:105AD000264B1B68102213401AD0BB6ABB60002300
