:020000040800F2
:1000000000000120090D00082F0C0008350C000825
:100010003B0C0008410C0008470C000800000000E1
:100020000000000000000000000000004D0C00086F
:10003000590C000800000000650C0008710C000855
:10004000590D0008590D0008590D0008590D0008F8
:10005000590D0008590D0008590D0008590D0008E8
:10006000590D0008590D0008590D0008590D0008D8
:10007000590D0008590D0008590D0008590D0008C8
:10008000590D0008590D0008590D0008590D0008B8
:10009000590D0008590D0008590D0008590D0008A8
:1000A000590D0008590D0008590D0008590D000898
:1000B000590D0008590D0008590D0008590D000888
:1000C000590D0008590D0008590D0008590D000878
:1000D000590D0008590D0008590D0008590D000868
:1000E000590D0008590D0008590D0008590D000858
:1000F000590D0008590D0008590D0008590D000848
:10010000590D0008590D00087D0C0008590D000814
:10011000590D0008590D0008590D0008590D000827
:10012000590D0008590D0008590D0008590D000817
:08013000590D0008590D0008EB
:1001400010B5054C237833B9044B13B10448AFF311
:1001500000800123237010BD5C000020000000001F
:100160005859000808B5034B1BB103490348AFF3C6
:10017000008008BD00000000600000205859000801
:10018000034613F8012B002AFBD1181A01387047D7
:1001900001F0FF01102A2BDB10F0070F08D010F838
:1001A000013B013A8B422DD010F0070F42B3F6D13C
:1001B000F0B441EA012141EA014122F007047FF055
:1001C00000070023F0E80256083C85EA010586EAAC
:1001D000010685FA47F5A3FA87F586FA47F6A5FAE8
:1001E00087F68EB9EED1F0BC01F0FF0102F00702F4
:1001F00032B110F8013B013A83EA010313B1F8D19F
:100200000020704701387047002D06BF354603387F
:10021000073815F0010F07D1013015F4807F02BFB8
:10022000013015F4C03F0130F0BC0138704700BF09
:1002300053B94AB9002908BF00281CBF4FF0FF314D
:100240004FF0FF3000F070B9ADF1080C6DE904CE4D
:1002500000F006F8DDF804E0DDE9022304B07047A1
:100260002DE9F047089E0D4604460F46002B4AD163
:100270008A42944665D9B2FA82F343B102FA03FC8A
:10028000C3F120029F4020FA02F217439C404FEA3C
:100290001C4E1FFA8CF5B7FBFEF1220C0EFB1177FA
:1002A00042EA074201FB05F090420AD91CEB020228
:1002B00001F1FF3780F01B81904240F21881023932
:1002C0006244121AA4B2B2FBFEF00EFB102244EA02
:1002D000024400FB05F5A5420AD91CEB040400F119
:1002E000FF3280F00681A54240F203816444023867
:1002F00040EA0140641B00211EB1DC400023C6E936
:100300000043BDE8F0878B4208D9002E00F0EC8056
:100310000021C6E900050846BDE8F087B3FA83F17D
:10032000002949D1AB4202D3824200F2F780841AFD
:1003300065EB030201201746002EE2D0C6E9004714
:10034000DFE702B9FFDEB2FA82F3002B40F08F80C4
:100350008A1A4FEA1C471FFA8CFE0121B2FBF7F5FF
:1003600007FB1520220C42EA00420EFB05F09042EA
:1003700008D91CEB020205F1FF3802D2904200F2CC
:10038000CA804546121AA4B2B2FBF7F007FB10224E
:1003900044EA02440EFB00FEA64508D91CEB040407
:1003A00000F1FF3202D2A64500F2BA801046A4EB5B
:1003B0000E0440EA05409FE7C1F120078B4022FA76
:1003C00007FC4CEA030C05FA01F420FA07F3FD40A0
:1003D000234300FA01F94FEA1C401FFA8CFEB5FBDB
:1003E000F0F81C0C00FB185544EA054408FB0EF518
:1003F000A54202FA01F20BD91CEB040408F1FF3A02
:1004000080F08780A54240F28480A8F1020864440D
:10041000641B9DB2B4FBF0F300FB134445EA0444B3
:1004200003FB0EFEA64508D91CEB040403F1FF30C4
:100430006BD2A64569D9023B644443EA0840A0FB5D
:100440000283A4EB0E049C42C6461D4655D352D0EF
:1004500056B1B9EB0E0364EB050404FA07F7CB4081
:10046000CC401F43C6E900740021BDE8F087C3F10A
:10047000200102FA03FC20FA01F225FA01F19D4065
:100480002A434FEA1C471FFA8CFEB1FBF7F007FB2B
:100490001015110C41EA054100FB0EF58D4204FADE
:1004A00003F408D91CEB010100F1FF382FD28D4273
:1004B0002DD902386144491B92B2B1FBF7F507FB15
:1004C000151142EA014205FB0EF1914208D91CEBDD
:1004D000020205F1FF3816D2914214D9023D62445E
:1004E000521A45EA004139E73146304609E73946B4
:1004F000E7E61046FCE6C145AAD2B8EB020E63EB74
:100500000C050138A4E74546EAE7034695E740466F
:10051000D1E7D0467CE7023D624433E708460BE76B
:100520006444023843E700BF704700BF80B500AFA6
:1005300000F0F6F800F060F9024803F0E4FB00BFB9
:1005400080BD00BF7C00002090B5B5B004AF704BFB
:100550001B68002B00F0D9806D4B00221A6007F158
:100560008F013B462822184603F028FE07F190032E
:10057000184604F0F3FA0023C7F8BC306AE007F12C
:100580007802D7F8BC30134400221A70D7F8BC3078
:100590005B00C0333B4413F8C03CA7F8A830D7F841
:1005A000BC305B000133C0333B4413F8C03CA7F8B8
:1005B000A630B7F8A8301B021AB2B7F9A630134319
:1005C0001BB2A7F8BA300023C7F8B43039E0B7F847
:1005D000BA309B0BA7F8A430B7F8BA309B00A7F845
:1005E000BA30B7F8A430012B0FD107F17802D7F851
:1005F000BC3013441B785B00D9B207F17802D7F8FE
:10060000BC3013440A461A7016E0B7F8A430022B27
:1006100012D107F17802D7F8BC3013441B785B0085
:100620005BB243F001035BB2D9B207F17802D7F8AD
:10063000BC3013440A461A70D7F8B4300133C7F8F7
:10064000B430D7F8B430072BC1DDD7F8BC30013354
:10065000C7F8BC30D7F8BC30132B90D90023C7F8AB
:10066000B0301FE007F17802D7F8B03013441B78A0
:1006700007F12800274A502104F0B8FC07F12801AF
:1006800064230222244802F08CFE034687F8AB3034
:1006900097F8AB30002B00D000BED7F8B030013354
:1006A000C7F8B030D7F8B030132BDBD997F89430B7
:1006B0001C4697F996301A4697F995301946D7F89F
:1006C000983007F128000293019100922346134AC3
:1006D000502104F08BFC07F128031846FFF750FD6A
:1006E000C7F8AC00D7F8AC309AB207F12801642300
:1006F000094802F056FE034687F8AB3097F8AB3056
:10070000002B3FF424AF00BE21E730BF1FE700BF3E
:1007100078000020705900087C00002078590008FB
:1007200080B58EB000AF304803F000FD40F61610E3
:1007300004F07AFA034643F04003DBB2194640F670
:10074000161004F05DFA03F0F6FD0021002004F01D
:10075000C1F9264803F014FF052004F029FB00200E
:1007600003F0DAFD002003F051FF00233B7720481F
:1007700004F014FC034687F8293042F210733B6200
:1007800046F2A8137B62002387F8283007F11C0388
:10079000184604F02FF800233B720023BB7301239B
:1007A0007B740023BB740023FB7328233B7420233A
:1007B0007B8104233B7320237B7307F108031846D6
:1007C00004F0EAF80B4A3B4692E8030083E8030092
:1007D0003B46184603F014FD4FF47A7000F034FBEA
:1007E00000BF3837BD4680BD5108000880BBC2330A
:1007F000A0860100AC59000880B582B000AF01228C
:100800004FF40071114800F0AFFD01224FF4006178
:100810000E4800F0A9FD0223FB80F988F888002328
:10082000002203F051FE0021012004F099FA6FF03C
:100830007F4003F051FD00224FF40071034800F0A7
:1008400093FD00BF0837BD4680BD00BF00040048CF
:1008500080B483B000AF0346FB80FB88022B02D13B
:10086000034B01221A6000BF0C37BD4680BC7047A5
:100870007800002080B485B000AF78604FF0B043BE
:10088000DA6C4FF0B0417B681343CB644FF0B04358
:10089000DA6C7B681340FB60FB6800BF1437BD4611
:1008A00080BC704780B500AF00F058FA00F00AF83D
:1008B00000F0B8F800F058F8FFF738FEFFF744FEF4
:1008C000FCE7000080B59AB000AF07F12003482292
:1008D0000021184604F0BEFB3B1D00221A605A603E
:1008E0009A60DA601A615A619A611E4B1B6823F4A0
:1008F000C0631C4A43F4806313601A4B1B6803F403
:10090000C0633B603B6820233B6201233B640023C0
:100910007B646023BB640023FB6407F1200318465B
:1009200001F00CF80346002B01D000F0D5F84F235E
:100930007B600023BB600023FB6000233B6100233E
:100940007B610023FB613B1D0021184601F078FB11
:100950000346002B01D000F0BFF800BF6837BD464A
:1009600080BD00BF0004005880B500AF224B234A71
:100970001A60214B4FF4E1325A601F4B00229A60FB
:100980001D4B0022DA601C4B00221A611A4B082210
:100990005A61194B00229A61174B00221A62164BBA
:1009A00000225A62144B00229A62134B00225A66AC
:1009B000114802F0A6FC0346002B01D000F08CF891
:1009C00000210D4803F0D7F90346002B01D000F0B9
:1009D00083F80021084803F00CFA0346002B01D0ED
:1009E00000F07AF8044803F08EF90346002B01D09A
:1009F00000F072F800BF80BD7C0000200080004045
:100A000080B500AF064B08221A60054802F08CF84A
:100A10000346002B01D000F05FF800BF80BD00BF8F
:100A20001001002080B586B000AF3B1D00221A6087
:100A30005A609A60DA601A610220FFF71BFF0420F7
:100A4000FFF718FF0120FFF715FF00224FF40A41BE
:100A50001F4800F089FC002238211E4800F084FC69
:100A60004FF40A437B600123BB600023FB60022339
:100A70003B613B1D1946164800F016FB38237B608E
:100A80000123BB600023FB6003233B613B1D194630
:100A9000104800F009FB03237B604FF40413BB6094
:100AA0000123FB603B1D19464FF0904000F0FCFA1B
:100AB00040237B604FF40413BB600123FB603B1DAC
:100AC0001946044800F0F0FA00BF1837BD4680BD53
:100AD000000400480008004880B400AF72B600BFB0
:100AE000FEE780B485B000AF78604FF0B043DA6CB9
:100AF0004FF0B0417B681343CB644FF0B043DA6CE6
:100B00007B681340FB60FB6800BF1437BD4680BCA8
:100B1000704780B485B000AF78604FF0B043DA6DB5
:100B20004FF0B0417B681343CB654FF0B043DA6DB3
:100B30007B681340FB60FB6800BF1437BD4680BC78
:100B4000704780B485B000AF78604FF0B0435A6E04
:100B50004FF0B0417B6813434B664FF0B0435A6E81
:100B60007B681340FB60FB6800BF1437BD4680BC48
:100B7000704780B400AF00BFBD4680BC7047000026
:100B800080B596B000AF786007F1440300221A6088
:100B90005A609A60DA601A6107F10C03382200216A
:100BA000184604F057FA7B681B68164A934224D112
:100BB0002023FB600023FB6107F10C03184601F0C2
:100BC000FFFD0346002B01D0FFF786FF0120FFF752
:100BD000A0FF0120FFF785FF0C237B640223BB6489
:100BE0000023FB6400233B6508237B6507F1440376
:100BF00019464FF0904000F057FA00BF5837BD46F5
:100C000080BD00BF0080004080B582B000AF78603A
:100C10000120FFF796FF00220021322000F00FFA9A
:100C2000322000F026FA00BF0837BD4680BD80B4F0
:100C300000AFFEE780B400AFFEE780B400AFFEE790
:100C400080B400AFFEE780B400AFFEE780B400AF31
:100C500000BFBD4680BC704780B400AF00BFBD463A
:100C600080BC704780B400AF00BFBD4680BC7047F9
:100C700080B500AF00F0CCF800BF80BD80B500AFFC
:100C8000024802F080F900BF80BD00BF10010020C3
:100C900080B586B000AF7860144A154BD31A7B61DB
:100CA0007B693B61134B1B68002B02D1114B124A2D
:100CB0001A60104B1A687B6813443A699A4207D24B
:100CC00004F0D0F903460C221A604FF0FF3309E01C
:100CD000084B1B68FB60074B1A687B681344054A86
:100CE0001360FB6818461837BD4680BD0000012020
:100CF000000400001C0100208002002080B400AF2E
:100D000000BFBD4680BC70470D488546FFF7F6FF23
:100D10000C480D490D4A002302E0D458C450043356
:100D2000C4188C42F9D30A4A0A4C002301E013602C
:100D30000432A242FBD304F09BF9FFF7B3FDFEE7B8
:100D400000000120000000205C000020A05B0008E3
:100D50005C0000207C020020FEE7000080B582B02D
:100D600000AF0023FB71032000F05EF901F04AFBA5
:100D70000346094A1360002000F010F80346002BD8
:100D800002D00123FB7101E0FFF7F3FEFB79184667
:100D90000837BD4680BD00BF0000002080B584B08C
:100DA00000AF78600023FB73174B1B78002B24D017
:100DB00001F028FB0246144B1B7819464FF47A7356
:100DC000B3FBF1F3B2FBF3F3184600F060F903460E
:100DD000002B0FD17B680F2B09D8002279684FF0C8
:100DE000FF3000F02CF9094A7B68136007E001230B
:100DF000FB7304E00123FB7301E00123FB73FB7B26
:100E000018461037BD4680BD0800002004000020B1
:100E100080B400AF054B1B781A46054B1B68134482
:100E2000034A136000BFBD4680BC70470800002025
:100E30002001002080B400AF024B1B681846BD465D
:100E400080BC70472001002080B584B000AF78607E
:100E5000FFF7F0FFB8607B68FB60FB68B3F1FF3F12
:100E600005D00A4B1B781A46FB681344FB6000BF91
:100E7000FFF7E0FF0246BB68D31AFA689A42F7D838
:100E800000BF00BF1037BD4680BD00BF0800002076
:100E900080B485B000AF78607B6803F00703FB6027
:100EA0000C4BDB68BB60BA684FF6FF031340BB60B6
:100EB000FB681A02BB68134343F0BF6343F400337B
:100EC000BB60044ABB68D36000BF1437BD4680BC1A
:100ED000704700BF00ED00E080B400AF044BDB685A
:100EE0001B0A03F007031846BD4680BC704700BFCD
:100EF00000ED00E080B483B000AF0346FB7197F9CA
:100F00000730002B0BDBFB7903F01F02064997F932
:100F100007305B09012000FA02F241F8232000BFEC
:100F20000C37BD4680BC704700E100E080B483B060
:100F300000AF03463960FB7197F90730002B0ADBDD
:100F40003B68DAB20C4997F907301201D2B20B4470
:100F500083F800230AE03B68DAB20849FB7903F022
:100F60000F03043B1201D2B20B441A7600BF0C37B8
:100F7000BD4680BC704700BF00E100E000ED00E02E
:100F800080B489B000AFF860B9607A60FB6803F0A4
:100F90000703FB61FB69C3F10703042B28BF04238C
:100FA000BB61FB690433062B02D9FB69033B00E0FC
:100FB00000237B614FF0FF32BB6902FA03F3DA438F
:100FC000BB681A407B699A404FF0FF317B6901FA98
:100FD00003F3D9437B680B40134318462437BD46BF
:100FE00080BC704780B582B000AF78607B68013B01
:100FF000B3F1807F01D301230FE00A4A7B68013BF4
:1010000053600F214FF0FF30FFF790FF054B002298
:101010009A60044B07221A60002318460837BD4621
:1010200080BD00BF10E000E080B582B000AF786006
:101030007868FFF72DFF00BF0837BD4680BD80B53B
:1010400086B000AF0346B9607A60FB73FFF744FFD8
:1010500078617A68B9687869FFF792FF024697F974
:101060000F3011461846FFF761FF00BF1837BD4625
:1010700080BD80B582B000AF0346FB7197F90730A1
:101080001846FFF737FF00BF0837BD4680BD80B563
:1010900082B000AF78607868FFF7A4FF0346184677
:1010A0000837BD4680BD000080B487B000AF7860CF
:1010B000396000237B6140E13B681A6801217B694C
:1010C00001FA03F31340FB60FB68002B00F0328150
:1010D0003B685B6803F00303012B05D03B685B684A
:1010E00003F00303022B30D17B689B683B617B6973
:1010F0005B00032202FA03F3DB433A6913403B61CE
:101100003B68DA687B695B0002FA03F33A691343D0
:101110003B617B683A699A607B685B683B6101224E
:101120007B6902FA03F3DB433A6913403B613B6896
:101130005B681B0903F001027B6902FA03F33A6959
:1011400013433B617B683A695A603B685B6803F014
:101150000303032B17D07B68DB683B617B695B0073
:10116000032202FA03F3DB433A6913403B613B6815
:101170009A687B695B0002FA03F33A6913433B61A7
:101180007B683A69DA603B685B6803F00303022B13
:1011900023D17B69DA087B68083253F822303B613F
:1011A0007B6903F007039B000F2202FA03F3DB4382
:1011B0003A6913403B613B681A697B6903F0070396
:1011C0009B0002FA03F33A6913433B617B69DA0837
:1011D0007B680832396943F822107B681B683B61E1
:1011E0007B695B00032202FA03F3DB433A69134095
:1011F0003B613B685B6803F003027B695B0002FABA
:1012000003F33A6913433B617B683A691A603B68B0
:101210005B6803F44033002B00F08C804E4A7B69FE
:101220009B08023352F823303B617B6903F00303D0
:101230009B00072202FA03F3DB433A6913403B6148
:101240007B68B3F1904F0DD07B68444A934207D03E
:101250007B68434A934201D1022304E0072302E062
:10126000012300E000237A6902F003029200934018
:101270003A6913433B6138497B699B0802333A69F9
:1012800041F82320374B1B683B61FB68DB433A691D
:1012900013403B613B685B6803F48013002B03D071
:1012A0003A69FB6813433B612E4A3B6913602D4B3F
:1012B0005B683B61FB68DB433A6913403B613B6819
:1012C0005B6803F40013002B03D03A69FB681343F7
:1012D0003B61244A3B695360224BD3F880303B6129
:1012E000FB68DB433A6913403B613B685B6803F48E
:1012F0008033002B03D03A69FB6813433B61194AE2
:101300003B69C2F88030174BD3F884303B61FB68EF
:10131000DB433A6913403B613B685B6803F400338D
:10132000002B03D03A69FB6813433B610D4A3B69CC
:10133000C2F884307B6901337B613B681A687B6942
:1013400022FA03F3002B7FF4B7AE00BF00BF1C37B7
:10135000BD4680BC704700BF00000140000400484B
:10136000000800480008005880B483B000AF7860DF
:101370000B467B8013467B707B78002B03D07A88EA
:101380007B689A6102E07A887B689A6200BF0C37BA
:10139000BD4680BC7047000080B400AF044B1B68A2
:1013A000034A43F48073136000BFBD4680BC70479E
:1013B0000004005880B400AF034B1B6803F4C06303
:1013C0001846BD4680BC70470004005880B400AF8A
:1013D000064B1B6803F48073B3F5807F01D10123B2
:1013E00000E000231846BD4680BC7047000400584A
:1013F00080B400AF4FF0B0431B684FF0B04243F4ED
:101400000013136000BFBD4680BC704780B400AFBE
:101410004FF0B0431B684FF0B04223F40013136049
:1014200000BFBD4680BC704780B400AF4FF0B043F2
:101430001B6803F48013B3F5801F01D1012300E082
:1014400000231846BD4680BC704780B400AF4FF003
:10145000B0431B684FF0B04243F48033136000BFC9
:10146000BD4680BC704780B400AF4FF0B0431B68EE
:101470004FF0B04223F48033136000BFBD4680BC00
:10148000704780B400AF4FF0B0431B6803F40033E3
:10149000B3F5003F01D1012300E000231846BD460B
:1014A00080BC704780B400AF4FF0B0431B684FF072
:1014B000B04243F48073136000BFBD4680BC7047E8
:1014C00080B400AF4FF0B0431B684FF0B04223F43C
:1014D0008073136000BFBD4680BC704780B400AF0E
:1014E0004FF0B0431B6803F48063B3F5806F01D104
:1014F000012300E000231846BD4680BC704780B43D
:1015000083B000AF78604FF0B0435B6823F0FE42D9
:101510007B681B064FF0B04113434B6000BF0C3794
:10152000BD4680BC704780B400AF4FF0B043D3F8E5
:10153000903003F00203022B01D1012300E00023CD
:101540001846BD4680BC704780B400AF4FF0B04332
:10155000D3F894304FF0B04243F00103C2F8943016
:1015600000BFBD4680BC704780B400AF4FF0B043B1
:10157000D3F894304FF0B04223F00103C2F8943016
:1015800000BFBD4680BC704780B400AF4FF0B04391
:10159000D3F8943003F00203022B01D1012300E0C1
:1015A00000231846BD4680BC704780B400AF4FF0A2
:1015B000B0431B684FF0B04243F00103136000BF1B
:1015C000BD4680BC704780B400AF4FF0B0431B688D
:1015D0004FF0B04223F00103136000BFBD4680BC52
:1015E000704780B400AF4FF0B0431B6803F00203B4
:1015F000022B01D1012300E000231846BD4680BC28
:10160000704780B400AF4FF0B0431B6803F008038D
:10161000082B01D1012300E000231846BD4680BC01
:10162000704780B400AF4FF0B0431B6803F0F00385
:101630001846BD4680BC704780B400AF4FF0B04341
:10164000D3F8943003F470631846BD4680BC7047ED
:1016500080B483B000AF78604FF0B0435B6823F490
:101660007F427B681B024FF0B04113434B6000BFC9
:101670000C37BD4680BC704780B483B000AF786043
:101680004FF0B0439B6823F003024FF0B0417B68FA
:1016900013438B6000BF0C37BD4680BC704780B4DD
:1016A00000AF4FF0B0439B6803F00C031846BD46F3
:1016B00080BC704780B483B000AF78604FF0B04317
:1016C0009B6823F0F0024FF0B0417B6813438B60BE
:1016D00000BF0C37BD4680BC704780B483B000AFFC
:1016E00078604FF0B043D3F8083123F0F0024FF0A8
:1016F000B0417B681343C1F8083100BF0C37BD46C9
:1017000080BC704780B483B000AF78604FF0B043C6
:10171000D3F8083123F00F027B681B094FF0B0416A
:101720001343C1F8083100BF0C37BD4680BC704779
:1017300080B483B000AF78604FF0B0439B6823F46F
:10174000E0624FF0B0417B6813438B6000BF0C3701
:10175000BD4680BC704780B483B000AF78604FF066
:10176000B0439B6823F460524FF0B0417B68134351
:101770008B6000BF0C37BD4680BC704780B400AFA3
:101780004FF0B0439B6803F0F0031846BD4680BCA1
:10179000704780B400AF4FF0B043D3F808311B015D
:1017A00003F0F0031846BD4680BC704780B400AF1C
:1017B0004FF0B0439B6803F4E0631846BD4680BC1D
:1017C000704780B400AF4FF0B0439B6803F46053A0
:1017D0001846BD4680BC704780B400AF4FF0B043A0
:1017E0001B684FF0B04243F08073136000BFBD46EA
:1017F00080BC704780B400AF4FF0B0431B684FF01F
:10180000B04223F08073136000BFBD4680BC7047B8
:1018100080B400AF4FF0B0431B6803F00073B3F126
:10182000007F01D1012300E000231846BD4680BCA3
:10183000704780B400AF4FF0B043DB681B0A03F081
:101840007F031846BD4680BC704780B400AF4FF0A0
:10185000B043DB6803F060431846BD4680BC704768
:1018600080B400AF4FF0B043DB6803F0700318465C
:10187000BD4680BC704780B400AF4FF0B043DB681A
:1018800003F003031846BD4680BC704780B400AF28
:101890004FF0B0439B6803F48033B3F5803F01D130
:1018A000012300E000231846BD4680BC704780B489
:1018B00000AF4FF0B043D3F8083103F40033B3F571
:1018C000003F01D1012300E000231846BD4680BC43
:1018D000704780B400AF4FF0B043D3F8083103F441
:1018E0008033B3F5803F01D1012300E00023184687
:1018F000BD4680BC704780B400AF4FF0B0439B68DA
:1019000003F40033B3F5003F01D1012300E00023CD
:101910001846BD4680BC704780B400AF4FF0B0435E
:101920009B6803F48023B3F5802F01D1012300E0ED
:1019300000231846BD4680BC7047000080B588B0C3
:1019400000AF78607B68002B01D101236FE3FFF7C4
:10195000A6FEF861FFF78FFFB8617B681B6803F094
:101960002003002B00F0C480FB69002B05D0FB692D
:101970000C2B76D1BB69012B73D17B681B6A002BC2
:1019800001D1012353E37B689A6A4FF0B0431B688F
:1019900003F00803002B05D04FF0B0431B6803F0A1
:1019A000F00306E04FF0B043D3F894301B0903F086
:1019B000F003934222D27B689B6A184600F05AFDDE
:1019C0000346002B01D0012331E34FF0B0431B68E5
:1019D0004FF0B04243F0080313604FF0B0431B6870
:1019E00023F0F0027B689B6A4FF0B04113430B6019
:1019F0007B685B6A1846FFF72BFE21E04FF0B0438F
:101A00001B684FF0B04243F0080313604FF0B0433F
:101A10001B6823F0F0027B689B6A4FF0B0411343D0
:101A20000B607B685B6A1846FFF712FE7B689B6A57
:101A3000184600F01FFD0346002B01D00123F6E2FB
:101A400000F0E0FC0346A74A1360A74B1B6818464A
:101A5000FFF7A4F90346FB74FB7C002B47D0FB7C0B
:101A6000E5E27B681B6A002B2CD0FFF79EFDFFF799
:101A7000E1F9786108E0FFF7DDF902467B69D31AE6
:101A8000022B01D90323D2E2FFF7ABFD0346002B63
:101A9000F1D04FF0B0431B684FF0B04243F0080361
:101AA00013604FF0B0431B6823F0F0027B689B6A21
:101AB0004FF0B04113430B607B685B6A1846FFF739
:101AC000C7FD15E0FFF77FFDFFF7B4F9786108E087
:101AD000FFF7B0F902467B69D31A022B01D9032321
:101AE000A5E2FFF77EFD0346002BF1D100E000BF29
:101AF0007B681B6803F00103002B58D0FB69082B9F
:101B000005D0FB690C2B08D1BB69032B05D17B6881
:101B10005B68002B4BD1012389E24FF0B0431B6877
:101B200023F480127B689B684FF0B04113430B6035
:101B30007B685B68B3F5803F02D1FFF786FC0DE060
:101B40007B685B68B3F5041F04D1FFF751FCFFF716
:101B50007CFC03E0FFF787FCFFF758FC7B685B68C1
:101B6000002B12D0FFF766F9786108E0FFF762F901
:101B700002467B69D31A642B01D9032357E2FFF78E
:101B800080FC0346002BF1D011E0FFF753F9786198
:101B900008E0FFF74FF902467B69D31A642B01D99D
:101BA000032344E2FFF76DFC0346002BF1D17B6871
:101BB0001B6803F00203002B46D0FB69042B05D001
:101BC000FB690C2B0ED1BB69022B0BD17B681B6907
:101BD000002B01D101232AE27B685B691846FFF7DD
:101BE0008EFC31E07B681B69002B19D0FFF75AFC93
:101BF000FFF720F9786108E0FFF71CF902467B69DE
:101C0000D31A022B01D9032311E2FFF767FC034625
:101C1000002BF1D07B685B691846FFF770FC13E07E
:101C2000FFF74EFCFFF706F9786108E0FFF702F9CD
:101C300002467B69D31A022B01D90323F7E1FFF790
:101C40004DFC0346002BF1D17B681B6803F00803B1
:101C5000002B6ED07B689B69002B56D04FF0B043B1
:101C6000D3F89430FB607B68DA69FB6803F01003FB
:101C70009A4231D0FB6803F00203002B06D0FB68C8
:101C800003F00103002B01D10123D0E1FB6803F035
:101C90000103002B13D0FFF767FCFFF7CBF8786147
:101CA00008E0FFF7C7F802467B69D31A112B01D968
:101CB0000323BCE1FFF768FC0346002BF1D14FF092
:101CC000B043D3F8943023F010027B68DB694FF007
:101CD000B0411343C1F89430FFF736FCFFF7AAF880
:101CE00078610CE00000002004000020FFF7A2F85B
:101CF00002467B69D31A112B01D9032397E1FFF721
:101D000043FC0346002BF1D013E0FFF72DFCFFF757
:101D100091F8786108E0FFF78DF802467B69D31AE5
:101D2000112B01D9032382E1FFF72EFC0346002B80
:101D3000F1D17B681B6803F00403002B00F0D8800E
:101D4000FFF744FB0346002B13D1FFF725FBFFF7FA
:101D500071F8786108E0FFF76DF802467B69D31AE5
:101D6000022B01D9032362E1FFF730FB0346002B6E
:101D7000F1D07B68DB68002B7BD07B68DB68852B30
:101D800003D07B68DB68052B09D14FF0B043D3F853
:101D900090304FF0B04243F00403C2F89030FFF7A8
:101DA00049F878614FF0B043D3F890304FF0B0422B
:101DB00043F00103C2F890300AE0FFF73BF8024617
:101DC0007B69D31A41F28832934201D903232EE171
:101DD000FFF7A9FB0346002BEFD07B68DB68812B64
:101DE00003D07B68DB68852B21D1FFF723F878616E
:101DF0004FF0B043D3F890304FF0B04243F080033F
:101E0000C2F890300AE0FFF715F802467B69D31A52
:101E100041F28832934201D9032308E14FF0B043E5
:101E2000D3F8903003F40063002BECD060E0FFF7B0
:101E300001F878614FF0B043D3F890304FF0B042E2
:101E400023F08003C2F890300AE0FEF7F3FF024669
:101E50007B69D31A41F28832934201D90323E6E029
:101E60004FF0B043D3F8903003F40063002BECD173
:101E70003EE0FEF7DFFF78614FF0B043D3F89030DB
:101E80004FF0B04223F08003C2F890300AE0FEF732
:101E9000D1FF02467B69D31A41F28832934201D9BD
:101EA0000323C4E04FF0B043D3F8903003F4006351
:101EB000002BECD1FEF7BEFF78614FF0B043D3F8B2
:101EC00090304FF0B04223F00103C2F890300AE0A6
:101ED000FEF7B0FF02467B69D31A41F28832934283
:101EE00001D90323A3E0FFF71EFB0346002BEFD12C
:101EF0007B68DB6A002B00F09980FB690C2B6CD0AF
:101F00007B68DB6A022B4BD1FFF774FCFEF792FF74
:101F1000786108E0FEF78EFF02467B69D31A0A2B30
:101F200001D9032383E0FFF773FC0346002BF1D1B3
:101F30004FF0B043DA68404B13407A68116B7A680F
:101F4000526B11437A68926B120211437A68D26B1A
:101F500011437A68126C11437A68526C0A434FF04D
:101F6000B0411343CB60FFF737FC4FF0B043DB6861
:101F70004FF0B04243F08053D360FEF75BFF7861CF
:101F800008E0FEF757FF02467B69D31A0A2B01D9F6
:101F900003234CE0FFF73CFC0346002BF1D045E067
:101FA000FFF728FCFEF746FF786108E0FEF742FFE6
:101FB00002467B69D31A0A2B01D9032337E0FFF7C6
:101FC00027FC0346002BF1D14FF0B043DA684FF005
:101FD000B0411A4B1340CB6028E07B68DB6A012BD1
:101FE00001D1012323E04FF0B043DB68BB61BB6943
:101FF00003F003027B681B6B9A4215D1BB6903F0A7
:1020000070027B685B6B9A420ED1BB6903F4FE429F
:102010007B689B6B1B029A4206D1BB6903F060424E
:102020007B685B6C9A4201D0012300E000231846D4
:102030002037BD4680BD00BF8C80C111FCFFFEEE85
:1020400080B584B000AF786039607B68002B01D127
:1020500001232CE1984B1B6803F007033A689A426E
:102060001BD9954B1B6823F0070293493B68134328
:102070000B60FEF7DFFEF86008E0FEF7DBFE0246CD
:10208000FB68D31A022B01D9032310E18A4B1B688A
:1020900003F007033A689A42EFD17B681B6803F0AC
:1020A0000203002B16D07B689B681846FFF702FBE3
:1020B000FEF7C0FEF86008E0FEF7BCFE0246FB68D3
:1020C000D31A022B01D90323F1E0FFF7DFFB03460C
:1020D000002BF1D07B681B6803F02003002B16D087
:1020E0007B685B691846FFF7F8FAFEF7A3FEF86015
:1020F00008E0FEF79FFE0246FB68D31A022B01D9C7
:102100000323D4E0FFF7D3FB0346002BF1D07B6819
:102110001B6803F04003002B16D07B689B691846B0
:10212000FFF7F0FAFEF786FEF86008E0FEF782FEA1
:102130000246FB68D31A022B01D90323B7E0FFF74D
:10214000C8FB0346002BF1D07B681B6803F0040337
:10215000002B16D07B68DB681846FFF7E9FAFEF71C
:1021600069FEF86008E0FEF765FE0246FB68D31AD8
:10217000022B01D903239AE0FFF7BDFB0346002B96
:10218000F1D07B681B6803F00803002B17D07B6835
:102190001B69DB001846FFF7DEFAFEF74BFEF8601E
:1021A00008E0FEF747FE0246FB68D31A022B01D96E
:1021B00003237CE0FFF7B0FB0346002BF1D07B68E4
:1021C0001B6803F00103002B43D07B685B68022B84
:1021D00006D1FFF756F90346002B1ED1012366E016
:1021E0007B685B68032B06D1FFF712FB0346002BCD
:1021F00013D101235BE07B685B68002B06D1FFF7FE
:10220000F0F90346002B08D1012350E0FFF766F9EF
:102210000346002B01D1012349E07B685B68184627
:10222000FFF72AFAFEF706FEF8600AE0FEF702FE64
:102230000246FB68D31A41F28832934201D9032344
:1022400035E0FFF72CFA02467B685B689B009A42F8
:10225000ECD1194B1B6803F007033A689A421BD272
:10226000154B1B6823F0070213493B6813430B60AF
:10227000FEF7E0FDF86008E0FEF7DCFD0246FB68D3
:10228000D31A022B01D9032311E00B4B1B6803F077
:1022900007033A689A42EFD100F0B4F80346074AC0
:1022A0001360074B1B681846FEF778FD0346184677
:1022B0001037BD4680BD00BF004000580000002020
:1022C0000400002090B587B000AF00237B6100239D
:1022D0003B61FFF7E4F9B860FFF7CDFA7860BB68BF
:1022E000002B05D0BB680C2B39D17B68012B36D174
:1022F000FFF787F90346002B15D1FFF782F9034654
:10230000012B06D1FFF78DF903461B0A03F00F03DB
:1023100005E0FFF791F903461B0A03F00F03364A65
:1023200052F8233014E0FFF76CF90346012B06D175
:10233000FFF777F903461B0903F00F0305E0FFF7EA
:102340007BF903461B0903F00F032B4A52F8233095
:102350003B61BB68002B15D13B697B6112E0BB6818
:10236000042B02D1254B7B610CE0BB68082B09D103
:10237000FFF75AF80346012B02D1204B7B6101E0A5
:102380001F4B7B61FFF78BF903460C2B2FD1FFF717
:1023900072FA78607B68022B03D07B68032B03D032
:1023A0000DE0164BFB600DE0FFF73EF80346012BF6
:1023B00002D1124BFB6005E0114BFB6002E03B6970
:1023C000FB6000BFFFF735FA0246FB6803FB02F42F
:1023D000FFF746FA03461B090133B4FBF3F4FFF79A
:1023E00034FA03465B0F0133B4FBF3F37B617B6983
:1023F00018461C37BD4690BD445A00080024F4001E
:102400000048E80198B500AFFFF75CFF0446FFF70E
:10241000B5F903461B0903F00F03034A52F82330B2
:10242000B4FBF3F3184698BDE459000898B500AF23
:10243000FFF7E8FF0446FFF7B9F903461B0A034A12
:1024400052F8233024FA03F3184698BD245A0008A2
:1024500098B500AFFFF7D6FF0446FFF7B2F9034681
:10246000DB0A034A52F8233024FA03F3184698BDD6
:10247000245A000890B585B000AF78607B681B09CE
:1024800003F00F03104A52F82330FB60FFF781F985
:1024900003461B0903F00F030C4A52F82330FA6875
:1024A000B2FBF3F3BB60BB68094AA2FB03239C0C9D
:1024B000FEF780FF03461946204600F00BF803465E
:1024C00018461437BD4690BD445A0008E459000828
:1024D00083DE1B4380B58EB000AF786039603A4A26
:1024E00007F1200392E80300186004331980374A8B
:1024F00007F1180392E80300186004331980344A86
:1025000007F10C0307CA83E8070000237B633B68DD
:10251000B3F5007F1BD100233B6314E03B6B5B00F2
:1025200038333B4433F8183C1A467B68934207D84B
:102530003B6B9B0038333B4453F82C3C7B6321E0DE
:102540003B6B01333B633B6B022BE7D91AE0002363
:10255000FB6214E0FB6A5B0038333B4433F8203CF9
:102560001A467B68934207D8FB6A9B0038333B448A
:1025700053F82C3C7B6305E0FB6A0133FB62FB6A8A
:10258000022BE7D9134B1B6823F0070211497B6B21
:1025900013430B60FEF74EFCB86208E0FEF74AFCFE
:1025A0000246BB6AD31A022B01D9032307E0094B69
:1025B0001B6803F007037A6B9A42EFD10023184699
:1025C0003837BD4680BD00BFB4590008BC5900086B
:1025D000C45900080040005880B400AF4FF0B04329
:1025E000D3F8903003F00203022B01D1012300E065
:1025F00000231846BD4680BC704780B483B000AF4E
:1026000078604FF0B043D3F888207B681B0CDB4325
:102610001A407B689BB24FF0B0411343C1F8883039
:1026200000BF0C37BD4680BC704780B483B000AF9C
:1026300078604FF0B043D3F8883023F440724FF005
:10264000B0417B681343C1F8883000BF0C37BD46EA
:1026500080BC704780B483B000AF78604FF0B04367
:10266000D3F8883023F440624FF0B0417B681343C5
:10267000C1F8883000BF0C37BD4680BC704780B4BD
:1026800083B000AF78604FF0B043D3F888207B6808
:102690001B0903F47F23DB431A407B681B0103F40F
:1026A0007F234FF0B0411343C1F8883000BF0C378F
:1026B000BD4680BC704780B483B000AF78604FF0F7
:1026C000B043D3F888207B681B0C1B04DB431A4003
:1026D0007B681B044FF0B0411343C1F8883000BF42
:1026E0000C37BD4680BC704780B483B000AF7860C3
:1026F0004FF0B043D3F8883023F040424FF0B04160
:102700007B681343C1F8883000BF0C37BD4680BCDE
:10271000704780B483B000AF78604FF0B043D3F817
:10272000883023F040524FF0B0417B681343C1F82A
:10273000883000BF0C37BD4680BC704780B483B082
:1027400000AF78604FF0B043D3F8903023F440727C
:102750004FF0B0417B681343C1F8903000BF0C3795
:10276000BD4680BC704780B400AF4FF0B043D3F893
:10277000903003F440731846BD4680BC704780B467
:1027800000AF4FF0B043D3F890304FF0B04243F475
:102790008033C2F8903000BFBD4680BC704780B423
:1027A00000AF4FF0B043D3F890304FF0B04223F475
:1027B0008033C2F8903000BFBD4680BC7047000037
:1027C00080B586B000AF786000237B610023FB7486
:1027D0000023BB747B681B6803F48033002B58D044
:1027E000FEF7DAFDFEF726FBF86009E0FEF722FBB4
:1027F0000246FB68D31A022B02D90323FB7406E0BE
:102800007B4B1B6803F48073B3F5807FEED1FB7CB8
:10281000002B3CD1FFF7A7FF02467B685B6B9A4217
:102820000FD04FF0B043D3F8903023F440737B6166
:10283000FFF7A5FFFFF7B3FF4FF0B0427B69C2F887
:1028400090307B6903F00203002B14D0FEF7F2FAFC
:10285000F8600BE0FEF7EEFA0246FB68D31A41F28D
:102860008832934202D90323FB7404E0FFF7B4FEDD
:102870000346012BEED1FB7C002B05D17B685B6B03
:102880001846FFF75BFF04E0FB7CBB7401E0FB7CB8
:10289000BB747B681B6803F00103002B04D07B68CA
:1028A0005B681846FFF7A9FE7B681B6803F002030C
:1028B000002B04D07B689B681846FFF79EFE7B6860
:1028C0001B6803F02003002B04D07B681B691846AB
:1028D000FFF7C0FE7B681B6803F40073002B04D075
:1028E0007B681B6A1846FFF7E6FE7B681B6803F4EB
:1028F0008063002B04D07B685B6A1846FFF7DBFE21
:102900007B681B6803F40063002B04D07B689B6A20
:102910001846FFF7D0FE7B681B6803F04003002BCE
:1029200004D07B685B691846FFF7A9FE7B681B68CB
:1029300003F08003002B04D07B689B691846FFF7E7
:102940009EFE7B681B6803F48073002B04D07B68B9
:10295000DB691846FFF793FE7B681B6803F01003E2
:10296000002B11D07B68DB681846FFF75EFE7B68A2
:10297000DB68B3F5807F07D14FF0B043DB684FF0E1
:10298000B04243F08073D3607B681B6803F400435C
:10299000002B10D07B681B6B1846FFF7A5FE7B68E9
:1029A0001B6B002B07D14FF0B043DB684FF0B042F8
:1029B00043F08073D3607B681B6803F48043002B73
:1029C00011D07B68DB6A1846FFF7A3FE7B68DB6AE1
:1029D000B3F1005F07D14FF0B043DB684FF0B04276
:1029E00043F48033D360BB7C18461837BD4680BDA6
:1029F0000004005880B483B000AF7860064B9B6839
:102A000023F4006204497B6813438B6000BF0C37DA
:102A1000BD4680BC704700BF0004005880B400AFC2
:102A2000054BD3F89030044A43F40043C2F8903089
:102A300000BFBD4680BC70470004005880B400AFA2
:102A4000054BD3F89030044A23F40043C2F8903089
:102A500000BFBD4680BC70470004005880B400AF82
:102A6000034B4FF400629A6100BFBD4680BC7047C3
:102A70000004005880B400AF064B5B6903F002030A
:102A8000022B01D1012300E000231846BD4680BC83
:102A9000704700BF0004005880B400AF064B5B696C
:102AA00003F00403042B01D1012300E000231846A6
:102AB000BD4680BC704700BF0004005880B400AF22
:102AC0004FF0B043D3F894304FF0B04223F40043BA
:102AD000C2F8943000BFBD4680BC704780B400AFE0
:102AE0004FF0B043D3F8943003F48043B3F5804FF4
:102AF00001D1012300E000231846BD4680BC704789
:102B000080B483B000AF7860064BD3F890200549BD
:102B10007B681343C1F8903000BF0C37BD4680BCC2
:102B2000704700BF0008005880B584B000AF7860DF
:102B30007B68002B03D10123FB73FB7B52E0002356
:102B4000FB737B689B79BB73BB7B002B02D0BB7B89
:102B5000032B09D17B6800225A717868FEF754F87C
:102B60004FF48050FFF7CCFFBB7B002B26D17B6856
:102B700002229A71FFF7A2FF1C4B1A681346DB0072
:102B80009B1A9B00DB0C642202FB03F3BB60BB6857
:102B9000002B05D10123FB737B6801229A6007E0BB
:102BA000BB68013BBB60FFF799FF0346002BEED1EA
:102BB000FFF734FF4FF40060FFF71CFFFFF74EFFF5
:102BC000FB7B002B0AD17B681B68184600F058FA83
:102BD0007B6801221A717B6800229A607B6801225F
:102BE0009A71FB7B18461037BD4680BD000000205F
:102BF00080B586B000AFF8607A601A460B467B81DC
:102C000013463B81FB689B79DBB2012B4AD1FB6801
:102C10005B79012B01D1022345E0FB6801225A7147
:102C2000FB6802229A71F86800F0F8FAFFF706FFD5
:102C30000D21F86800F044FA7B891B0A9BB2DBB2D5
:102C40001946F86800F03CFA7B89DBB21946F8684F
:102C500000F036FA0023BB820AE0BB8A7A6813448C
:102C60001B781946F86800F02BFABB8A0133BB8247
:102C7000BA8A3B899A42F0D3FFF7D0FEF86800F099
:102C8000F1FAFB689B68002B02D00123FB7501E081
:102C90000023FB75FB6801229A71FB6800225A71C0
:102CA000FB7D00E0022318461837BD4680BD80B585
:102CB00088B000AFF8607A601A460B467B811346F5
:102CC0003B817B68BB61FB689B79DBB2012B4AD1FE
:102CD000FB685B79012B01D1022345E0FB680122EF
:102CE0005A71F86800F09AFAFFF7A8FE1D21F868FB
:102CF00000F0E6F97B891B0A9BB2DBB21946F86843
:102D000000F0DEF97B89DBB21946F86800F0D8F9EB
:102D10000021F86800F0D4F90023FB8209E0B969CA
:102D2000F86800F023FABB690133BB61FB8A013309
:102D3000FB82FA8A3B899A42F1D3FFF76FFEF8686B
:102D400000F090FAFB689B68002B02D00123FB7710
:102D500001E00023FB77FB6801229A71FB680022E7
:102D60005A71FB7F00E0022318462037BD4680BD24
:102D700080B586B000AFF8607A601A460B46FB72E9
:102D800013463B81FB689B79DBB2012B4AD1FB6880
:102D90005B79012B01D1022345E0FB6801225A71C6
:102DA000F86800F03BFAFB7A842B02D0FB7A942B74
:102DB00003D1FB6801221A7102E0FB6800221A713C
:102DC000FFF73CFEFB7A1946F86800F079F900231A
:102DD000BB820AE0BB8A7A6813441B781946F868FC
:102DE00000F06EF9BB8A0133BB82BA8A3B899A42F2
:102DF000F0D3FFF713FEFB7A842B02D0F86800F0C3
:102E000031FAFB689B68002B02D00123FB7501E0BF
:102E10000023FB75FB6801229A71FB6800225A713E
:102E2000FB7D00E0022318461837BD4680BD80B503
:102E300088B000AFF8607A601A460B46FB72134602
:102E40003B817B68BB61FB689B79DBB2012B3DD189
:102E5000FB685B79012B01D1022338E0FB6801227A
:102E60005A71F86800F0DAF9FFF7E8FDFB7A1946C5
:102E7000F86800F025F90021F86800F021F9002336
:102E8000FB8209E0B969F86800F070F9BB690133A9
:102E9000BB61FB8A0133FB82FA8A3B899A42F1D3F8
:102EA000FFF7BCFDF86800F0DDF9FB689B68002BBC
:102EB00002D00123FB7701E00023FB77FB680122AE
:102EC0009A71FB6800225A71FB7F00E002231846CA
:102ED0002037BD4680BD80B588B000AFF8607A600D
:102EE0001A460B46FB7213463B817B68BB61FB684D
:102EF0009B79DBB2012B41D1FB685B79012B01D1BE
:102F000002233CE0FB6801225A71F86800F086F960
:102F1000FFF794FD1E21F86800F0D2F8FB7A1946FD
:102F2000F86800F0CDF80021F86800F0C9F8002337
:102F3000FB8209E0B969F86800F018F9BB69013350
:102F4000BB61FB8A0133FB82FA8A3B899A42F1D347
:102F5000FFF764FDF86800F085F9FB689B68002BBB
:102F600002D00123FB7701E00023FB77FB680122FD
:102F70009A71FB6800225A71FB7F00E00223184619
:102F80002037BD4680BD80B584B000AF7860002397
:102F9000BB8107F10C02022312217868FFF747FF7B
:102FA0003B7BFB81FB891B021AB27B7B1BB2134369
:102FB0001BB2FB8107F10C02022302217868FFF7A4
:102FC000D7FEFB8903F00103002B02D0786801F0E3
:102FD00023FFFB8903F00203002B02D0786801F085
:102FE00029FFFB8903F00403002B02D0786801F06D
:102FF00079FFFB8903F00803002B02D0786801F009
:103000007FFFFB8903F01003002B02D0786801F0EA
:1030100085FFFB8903F02003002B02D0786801F0C4
:1030200053FFFB8903F04003002B02D0786801F0C6
:103030000FFFFB8903F08003002B0DD0FB8903F405
:103040008073002B04D00121786801F00FFF03E0AA
:103050000021786801F00AFFFB8903F40073002B5C
:1030600002D0786801F020FFFB8903F48043002B35
:1030700002D0786801F060FF00BF1037BD4680BD08
:1030800080B483B000AF78600C4B1B680B4A23F010
:1030900040031360094A7B6843F441731360074B94
:1030A0004FF4B8525A60054B1B68044A43F0400382
:1030B000136000BF0C37BD4680BC7047000001584C
:1030C00080B487B000AF78600B46FB700023FB75BF
:1030D000234B1A681346DB009B1A9B00DB0C64220F
:1030E00002FB03F3FB60FB68002B05D10123FB759A
:1030F0007B6801229A6008E0FB68013BFB60194B8A
:103100009B6803F00203022BEDD1174B3B613B6937
:10311000FA781A70124B1A681346DB009B1A9B0050
:10312000DB0C642202FB03F3FB60FB68002B05D180
:103130000123FB757B6801229A6008E0FB68013B74
:10314000FB60084B9B6803F00103012BEDD1054B9D
:10315000DB68FB7D18461C37BD4680BC704700BF4E
:1031600000000020000001580C00015880B487B016
:1031700000AF786039600023FB75254B1A68134651
:10318000DB009B1A9B00DB0C642202FB03F3FB6059
:10319000FB68002B05D10123FB757B6801229A6037
:1031A00008E0FB68013BFB601A4B9B6803F00203DD
:1031B000022BEDD1184B3B613B69FF221A70144B77
:1031C0001A681346DB009B1A9B00DB0C642202FB8F
:1031D00003F3FB60FB68002B05D10123FB757B68C3
:1031E00001229A6008E0FB68013BFB60094B9B6889
:1031F00003F00103012BEDD1064BDB68DAB23B682B
:103200001A70FB7D18461C37BD4680BC704700BF56
:1032100000000020000001580C00015880B584B067
:1032200000AF78607B681B79012B11D10C4B1A68B9
:1032300013465B001344DB001B0CFB60FFF7FEFB37
:10324000FB68013BFB60FB68002BF9D1FFF7E6FB55
:10325000786800F007F8034618461037BD4680BD71
:103260000000002080B586B000AF78600023FB75B9
:10327000124B1A6813465B001344DB001B0D6422DB
:1032800002FB03F3FB60FFF707FC3861FB68002BD0
:1032900005D10123FB757B6802229A6009E0FB6877
:1032A000013BFB60FFF7E6FB02463B691340012B45
:1032B000E9D0FB7D18461837BD4680BD00000020D0
:1032C00080B483B000AF78604FF0B043D3F888206B
:1032D0007B681A407B681B04134318460C37BD46B5
:1032E00080BC704780B483B000AF78604FF0B043CB
:1032F000D3F888207B68134018460C37BD4680BC45
:10330000704780B582B000AF78607B68002B01D138
:10331000012342E07B68D3F88830002B06D17B681C
:10332000002283F884207868FDF72AFC7B68242239
:10333000C3F888207B681B681A687B681B6822F0CA
:1033400001021A60786800F0B3F80346012B01D13E
:10335000012322E07B689B6A002B02D0786800F092
:103360001BFB7B681B685A687B681B6822F49042D1
:103370005A607B681B689A687B681B6822F02A0287
:103380009A607B681B681A687B681B6842F00102C0
:103390001A60786800F0A1FB034618460837BD465E
:1033A00080BD80B58AB002AFF860B9603B6013465B
:1033B000FB80FB68D3F88830202B73D1BB68002BCF
:1033C00002D0FB88002B01D101236CE0FB680022B6
:1033D000C3F89020FB682122C3F88820FDF72AFD5E
:1033E0007861FB68FA88A3F85420FB68FA88A3F890
:1033F0005620FB689B68B3F5805F08D1FB681B69AA
:10340000002B04D10023FB61BB68BB6103E0BB68F8
:10341000FB610023BB612CE03B6800937B690022C9
:103420008021F86800F0A7FB0346002B01D003239E
:1034300039E0FB69002B0BD1BB691B881A46FB687E
:103440001B68C2F308029A62BB690233BB6107E0E2
:10345000FB691A78FB681B689A62FB690133FB61A0
:10346000FB68B3F856309BB2013B9AB2FB68A3F8F5
:103470005620FB68B3F856309BB2002BCCD13B688A
:1034800000937B6900224021F86800F074FB03463A
:10349000002B01D0032306E0FB682022C3F888201C
:1034A000002300E0022318462037BD4680BD0000FF
:1034B0002DE9B04F8CB000AF7861002387F82A3037
:1034C0007B699A687B691B691A437B695B691A434C
:1034D0007B69DB691343FB627B691B681A68944B49
:1034E00013407A691268F96A0B4313607B691B68A1
:1034F0005B6823F440517B69DA687B691B680A4387
:103500005A607B699B69FB627B691B68894A9342AD
:1035100004D07B691B6AFA6A1343FB627B691B68F0
:103520009B6823F06E4323F430637A691268F96A6A
:103530000B4393607B691B68DB6A23F00F017B6997
:103540005A6A7B691B680A43DA627B691B687A4A9C
:10355000934227D10320FFF7B3FE0346A3F5403380
:10356000032B1BD801A252F823F000BF7D350008C1
:103570008D3500088535000895350008012387F84A
:103580002B3080E0022387F82B307CE0042387F87F
:103590002B3078E0082387F82B3074E0102387F86D
:1035A0002B3070E07B691B68644A934238D10C2051
:1035B000FFF786FE0346A3F540230C2B2CD801A26F
:1035C00052F823F0F93500081936000819360008BA
:1035D000193600080936000819360008193600089F
:1035E0001936000801360008193600081936000897
:1035F0001936000811360008002387F82B3042E006
:10360000022387F82B303EE0042387F82B303AE082
:10361000082387F82B3036E0102387F82B3032E070
:103620007B691B68434A93422AD14FF44060FFF7FD
:1036300059FE0346B3F5406F1AD0B3F5406F1BD85F
:10364000B3F5006F0CD0B3F5006F15D8002B03D085
:10365000B3F5806F08D00FE0002387F82B3012E01D
:10366000022387F82B300EE0042387F82B300AE082
:10367000082387F82B3006E0102387F82B3002E070
:10368000102387F82B307B691B682A4A934240F04D
:10369000A48097F82B30082B23D801A252F823F0EE
:1036A000C5360008E3360008CD360008E3360008CA
:1036B000D3360008E3360008E3360008E336000896
:1036C000DB360008FEF7B2FE786210E01C4B7B622E
:1036D0000DE0FEF7F7FD786209E04FF400437B62EE
:1036E00005E000237B62012387F82A3000BF7B6A54
:1036F000002B00F037817B695B6A124A32F8133085
:103700001A467B6AB3FBF2F3BB617B695A681346C6
:103710005B001344BA699A4205D37B695B681B035B
:10372000BA699A4210D9012387F82A301AE100BFFA
:10373000F369FFCF008000400038014000440040A2
:103740000024F400845A00087B6A0022BB60FA60FF
:103750007B695B6A8E4A32F813309BB200223B6071
:103760007A60D7E90023D7E90201FCF761FD024640
:103770000B46104619464FF000024FF000030B02B3
:1037800043EA1063020279694968490800200C463F
:10379000054612EB040843EB05097B695B680022D0
:1037A0009A46934652465B4640464946FCF740FDE2
:1037B00002460B4613463B623B6AB3F5407F08D393
:1037C0003B6AB3F5801F04D27B691B683A6ADA60F2
:1037D000C8E0012387F82A30C4E07B69DB69B3F5D0
:1037E000004F67D197F82B30082B28D801A252F848
:1037F00023F000BF193800082138000829380008D4
:103800003F3800082F3800083F3800083F380008CC
:103810003F38000837380008FEF708FE786214E0E9
:10382000FEF716FE786210E05A4B7B620DE0FEF761
:1038300049FD786209E04FF400437B6205E0002314
:103840007B62012387F82A3000BF7B6A002B00F0DF
:1038500089807B695B6A4E4A32F813301A467B6A6C
:10386000B3FBF2F35A007B695B685B081A447B691F
:103870005B68B2FBF3F33B623B6A0F2B16D93B6AE2
:10388000B3F5803F12D23B6A9BB223F00F03FB8358
:103890003B6A5B089BB203F007039AB2FB8B1343AE
:1038A000FB837B691B68FA8BDA605BE0012387F896
:1038B0002A3057E097F82B30082B28D801A252F86D
:1038C00023F000BFE9380008F1380008F938000893
:1038D0000F390008FF3800080F3900080F390008B9
:1038E0000F39000807390008FEF7A0FD786214E0E0
:1038F000FEF7AEFD786210E0264B7B620DE0FEF72E
:10390000E1FC786209E04FF400437B6205E00023AC
:103910007B62012387F82A3000BF7B6A002B21D00D
:103920007B695B6A1A4A32F813301A467B6AB3FB2A
:10393000F2F27B695B685B081A447B695B68B2FBE7
:10394000F3F33B623B6A0F2B09D93B6AB3F5803F27
:1039500005D23B6A9AB27B691B68DA6002E00123F8
:1039600087F82A307B690122A3F86A207B6901224B
:10397000A3F868207B6900225A677B6900229A6756
:1039800097F82A3018463037BD46BDE8B08F00BFE3
:10399000845A00080024F40080B483B000AF78603B
:1039A0007B689B6A03F00103002B0AD07B681B68CD
:1039B0005B6823F400317B68DA6A7B681B680A4322
:1039C0005A607B689B6A03F00203002B0AD07B6875
:1039D0001B685B6823F480317B681A6B7B681B680B
:1039E0000A435A607B689B6A03F00403002B0AD0E9
:1039F0007B681B685B6823F480217B685A6B7B685B
:103A00001B680A435A607B689B6A03F00803002B1B
:103A10000AD07B681B685B6823F400417B689A6B63
:103A20007B681B680A435A607B689B6A03F010033B
:103A3000002B0AD07B681B689B6823F480517B684D
:103A4000DA6B7B681B680A439A607B689B6A03F0A9
:103A50002003002B0AD07B681B689B6823F400516D
:103A60007B681A6C7B681B680A439A607B689B6A58
:103A700003F04003002B1AD07B681B685B6823F4BB
:103A800080117B685A6C7B681B680A435A607B68AC
:103A90005B6CB3F5801F0AD17B681B685B6823F4FD
:103AA000C0017B689A6C7B681B680A435A607B681C
:103AB0009B6A03F08003002B0AD07B681B685B685D
:103AC00023F400217B68DA6C7B681B680A435A6028
:103AD00000BF0C37BD4680BC704780B586B002AFD2
:103AE00078607B680022C3F89020FDF7A3F9F860A6
:103AF0007B681B681B6803F00803082B0ED16FF06E
:103B00007E430093FB6800224FF40011786800F0B8
:103B100032F80346002B01D0032328E07B681B68A2
:103B20001B6803F00403042B0ED16FF07E43009357
:103B3000FB6800224FF48001786800F01CF803460F
:103B4000002B01D0032312E07B682022C3F88820D9
:103B50007B682022C3F88C207B680022DA667B68B1
:103B600000221A677B68002283F88420002318460D
:103B70001037BD4680BD80B59CB000AFF860B9601D
:103B80003B601346FB71A9E0BB6FB3F1FF3F00F050
:103B9000A580FDF74FF902463B68D31ABA6F9A42E7
:103BA00002D3BB6F002B40D1FB681B683B653B6DAC
:103BB00053E8003FFB64FB6C23F4D0737B66FB6827
:103BC0001B681A467B6EFB65BA65B96DFA6D41E8F4
:103BD00000237B657B6D002BE6D1FB681B680833F7
:103BE000FB63FB6B53E8003FBB63BB6B23F001033C
:103BF0003B66FB681B6808333A6EBA647B64796C79
:103C0000BA6C41E800233B643B6C002BE5D1FB68B8
:103C10002022C3F88820FB682022C3F88C20FB6890
:103C2000002283F88420032369E0FB681B681B687B
:103C300003F00403002B51D0FB681B68DB6903F41D
:103C40000063B3F5006F49D1FB681B684FF4006255
:103C50001A62FB681B68BB62BB6A53E8003F7B6269
:103C60007B6A23F4D073FB66FB681B681A46FB6E05
:103C70007B633A63396B7A6B41E80023FB62FB6A32
:103C8000002BE6D1FB681B6808337B617B6953E836
:103C9000003F3B613B6923F00103BB66FB681B6887
:103CA0000833BA6E3A62FB61F9693A6A41E8002367
:103CB000BB61BB69002BE5D1FB682022C3F88820DB
:103CC000FB682022C3F88C20FB682022C3F89020D8
:103CD000FB68002283F88420032310E0FB681B6844
:103CE000DA69BB681340BA689A420CBF012300230B
:103CF000DBB21A46FB799A423FF446AF00231846DE
:103D00007037BD4680BD80B485B000AF78607B68F9
:103D100093F88430012B01D1022327E07B68012234
:103D200083F884207B682422C3F888207B681B6882
:103D30001B68FB607B681B681A687B681B6822F045
:103D400001021A60FB6823F00053FB607B680022CD
:103D50005A667B681B68FA681A607B682022C3F881
:103D600088207B68002283F88420002318461437BB
:103D7000BD4680BC704780B584B000AF78603960C4
:103D80007B6893F88430012B01D102232DE07B68FE
:103D9000012283F884207B682422C3F888207B6872
:103DA0001B681B68FB607B681B681A687B681B6864
:103DB00022F001021A607B681B689B6823F0604157
:103DC0007B681B683A680A439A60786800F050F88C
:103DD0007B681B68FA681A607B682022C3F8882019
:103DE0007B68002283F88420002318461037BD46E4
:103DF00080BD80B584B000AF786039607B6893F88F
:103E00008430012B01D102232DE07B68012283F84D
:103E100084207B682422C3F888207B681B681B6889
:103E2000FB607B681B681A687B681B6822F00102D4
:103E30001A607B681B689B6823F060617B681B6865
:103E40003A680A439A60786800F012F87B681B6849
:103E5000FA681A607B682022C3F888207B680022F9
:103E600083F88420002318461037BD4680BD00002B
:103E700080B485B000AF78607B685B6E002B08D1A2
:103E80007B680122A3F86A207B680122A3F86820DE
:103E900031E00823FB730823BB737B681B689B68B6
:103EA0005B0EDBB203F007037B737B681B689B68C8
:103EB0005B0FDBB203F007033B73BB7B3A7B10491C
:103EC0008A5C02FB03F33A7B0E498A5C93FBF2F3B4
:103ED0009AB27B68A3F86A20FB7B7A7B08498A5CEC
:103EE00002FB03F37A7B07498A5C93FBF2F39AB2F5
:103EF0007B68A3F8682000BF1437BD4680BC7047BC
:103F00009C5A0008A45A000880B485B000AF7860BD
:103F10004FF0B043DA6C4FF0B0417B681343CB6491
:103F20004FF0B043DA6C7B681340FB60FB6800BF66
:103F30001437BD4680BC704780B586B000AF3B1DCE
:103F400000221A605A609A60DA601A610420FFF752
:103F5000DBFF10237B600123BB600023FB60032396
:103F60003B613B1D19461248FDF79EF820237B60FC
:103F70003B1D19460E48FDF797F808237B603B1D53
:103F800019460B48FDF790F8002220210848FDF75C
:103F9000EBF9002210210648FDF7E6F9002208217E
:103FA0000348FDF7E1F9002318461837BD4680BDE8
:103FB0000008004880B582B000AF0346FB71FB7972
:103FC000032B4BD801A252F823F000BFDD3F0008BD
:103FD000FD3F00081D4000083D4000080022082168
:103FE0002148FDF7C1F9002210211F48FDF7BCF957
:103FF000002220211C48FDF7B7F930E001220821FA
:104000001948FDF7B1F9012210211748FDF7ACF965
:10401000002220211448FDF7A7F920E00122082101
:104020001148FDF7A1F9012210210F48FDF79CF975
:10403000012220210C48FDF797F910E00122082108
:104040000948FDF791F9002210210748FDF78CF986
:10405000012220210448FDF787F900E000BF00237A
:1040600018460837BD4680BD0008004880B400AF40
:1040700000231846BD4680BC704780B400AF0123C2
:104080001846BD4680BC704780B400AF0123184677
:10409000BD4680BC704780B485B000AF0346FB715D
:1040A000FB79002B02D10F23FB6001E01623FB609C
:1040B000FB6818461437BD4680BC704780B500AF1A
:1040C000FFF73AFF0346184680BD80B582B000AFC7
:1040D0000346FB71FB791846FFF76CFF0346184651
:1040E0000837BD4680BD80B500AFFFF7BFFF034670
:1040F000184680BD80B500AFFFF7BFFF03461846E6
:1041000080BD80B500AFFFF7BFFF0346184680BDF6
:1041100080B582B000AF0346FB71FB791846FFF70C
:10412000BAFF034618460837BD4680BD80B584B047
:1041300000AF78607B68002B02D01D4A7B6813605B
:10414000FCF75EFC022000F007FF1A4B00221A70F9
:10415000002000F0A5F8FFF7CDFF0346012B0ED19C
:104160004021012000F0EAF9002140F6111000F092
:1041700047FD7F233B73387B00F0F4F809E02021F2
:1041800040F6111000F03CFD202140F6121000F026
:1041900037FD0E2140F61F1000F032FDFFF78EFFB5
:1041A000054B01221A7000BF1037BD4680BD00BF0D
:1041B000300100202C0100202401002080B586B0B1
:1041C00000AFF860B9601346FB710023FB7507F17F
:1041D00017031946B86800F095FCBB681B78FA799C
:1041E0009A4201D2012307E0F87DBB681B781A468A
:1041F000F96800F04FFD002318461837BD4680BD12
:1042000080B582B000AF7860082279684FF4D8603A
:1042100000F01EFD002318460837BD4680BD80B55E
:1042200084B000AF0346FB80FB881B0A9BB2DBB265
:104230003B73FB88DBB27B7300F004FA0346002B70
:1042400008D107F10C030222194640F2BC6000F0CD
:10425000FFFC00E000BF00BF1037BD4680BD80B549
:1042600084B000AF0346FB80FB881B0A9BB2DBB225
:104270003B73FB88DBB27B7300F0E4F90346002B51
:1042800008D107F10C030222194640F2BE6000F08B
:10429000DFFC00E000BF00BF1037BD4680BD00005E
:1042A00080B582B000AF0346FB71FB1D01221946A9
:1042B000802000F011FDFB79002B03D1054B01227A
:1042C0001A7002E0034B02221A7000BF0837BD4685
:1042D00080BD00BF2401002080B584B000AF7860AD
:1042E0000C4B05221A707B681B0CDBB23B737B689E
:1042F0001B0ADBB27B737B68DBB2BB7307F10C0379
:1043000003221946822000F0E7FC00BF1037BD46AB
:1043100080BD00BF2401002080B582B000AF0346FD
:10432000FB71FB1D012219469F2000F0D5FC00BF48
:104330000837BD4680BD80B582B000AFFFF7E1FE13
:104340000346012B02D10123FB7101E00023FB7125
:10435000FB1D01221946962000F0BEFC00BF083765
:10436000BD4680BD80B584B000AF38713B79C3F3E2
:104370008013DBB29B015AB23B79C3F34013DBB22B
:104380005B015BB213435AB23B79C3F30013DBB258
:104390001B015BB213435AB23B79C3F3C003DBB2D8
:1043A000DB005BB213435AB23B79C3F38003DBB249
:1043B0009B005BB213435AB23B79C3F34003DBB2B9
:1043C0005B005BB213435AB23B79C3F30003DBB229
:1043D0005BB213435BB2DBB2FB7307F10F03012245
:1043E0001946892000F078FC00BF1037BD4680BD1B
:1043F00080B584B000AF78607B681D4A934204D9D1
:10440000E1233B73E9237B7327E07B68194A9342DE
:1044100004D9D7233B73DB237B731EE07B68164AEA
:10442000934204D9C1233B73C5237B7315E07B689A
:10443000124A934204D975233B7381237B730CE0AA
:104440007B680F4A934204D96B233B736F237B73C2
:1044500003E029233B732B237B7307F10C03022218
:104460001946982000F038FC00BF1037BD4680BDCB
:1044700000E9A43580F8A9328044E52D000B6B1BC0
:1044800040FC541990B585B000AF0446084611466B
:104490001A462346FB710346BB710B467B711346DC
:1044A0003B71FB793B73BB797B737B79BB733B7946
:1044B000FB7307F10C0304221946952000F00CFC55
:1044C00000BF1437BD4690BD90B585B000AF04461F
:1044D000084611461A462346FB800346BB800B461E
:1044E0007B8013463B80FB881B0A9BB2DBB23B728E
:1044F000FB88DBB27B72BB881B0A9BB2DBB2BB7250
:10450000BB88DBB2FB727B881B0A9BB2DBB23B73BE
:104510007B88DBB27B733B881B0A9BB2DBB2BB732D
:104520003B88DBB2FB7307F1080308221946082019
:1045300000F0D2FB00BF1437BD4690BD80B584B0FB
:1045400000AF03463960FB71FB7903F00703DBB270
:104550003B733B681B0CDBB27B733B681B0ADBB213
:10456000BB733B68DBB2FB7307F10C0304221946F3
:10457000972000F0B1FB00BF1037BD4680BD0000A2
:104580002DE9B04384B000AF78600023FB601D4B81
:104590001B7883F00103DBB2002B05D07868FFF7AE
:1045A00027FF184B01221A707B6800221C46154613
:1045B0004FEAD4194FEA4468134A4FF000034046CB
:1045C0004946FBF735FE02460B461346FB60FB6887
:1045D0001B0EDBB23B72FB681B0CDBB27B72FB6811
:1045E0001B0ADBB2BB72FB68DBB2FB7207F108038C
:1045F00004221946862000F06FFB00BF1037BD462D
:10460000BDE8B0832C0100200048E80180B582B0ED
:1046100000AF0346FB71FA79094B1A70FB79002B46
:1046200004D1002140F2AC6000F0EAFAFB1D012247
:1046300019468A2000F050FB00BF0837BD4680BDF8
:104640002501002080B400AF024B1B781846BD4600
:1046500080BC70472501002080B584B000AF0346C0
:10466000FB710B46BB7113467B71FB79012B49D162
:104670000020FFF74DFDF86097F90630FA689A427E
:1046800001DAFB68BB71FB680E2B0ED101230122FE
:1046900000210420FFF7F6FEBA79FB68DBB2D31ADB
:1046A000DBB20E33DBB2BB711FE0FB680A2B0ED10D
:1046B0000123012200210120FFF7E4FEBA79FB6803
:1046C000DBB2D31ADBB20D33DBB2BB710DE00123D9
:1046D000012200210720FFF7D5FEBA79FB68DBB283
:1046E000D31ADBB20E33DBB2BB7197F9063013F18C
:1046F000110F01DAEF23BB71182140F6E70000F03B
:104700007FFA67E040F6D80000F08EFA034643F0E7
:104710001E03DBB2194640F6D80000F071FA012002
:10472000FFF7F6FCF86097F90630FA689A4201DA6A
:10473000FB68BB71FB68142B0ED1012300220521FD
:104740000320FFF79FFEBA79FB68DBB2D31ADBB216
:104750001633DBB2BB7131E0FB68112B0ED10123A4
:10476000002203210220FFF78DFEBA79FB68DBB23D
:10477000D31ADBB21633DBB2BB711FE0FB680E2B22
:104780000ED10123002202210220FFF77BFEBA791D
:10479000FB68DBB2D31ADBB20E33DBB2BB710DE0C8
:1047A0000123002207210420FFF76CFEBA79FB6881
:1047B000DBB2D31ADBB21633DBB2BB7197F906302A
:1047C00013F1090F01DAF723BB71382140F6E70036
:1047D00000F016FABB793B727B797B7207F1080314
:1047E000022219468E2000F077FA00BF1037BD462E
:1047F00080BD00002DE9B04386B000AF7860002393
:104800007B61614A07F1080392E8030083E8030033
:104810007B681A785D4B1B789A4204D07B681B78C2
:104820001846FFF7F3FE7B681B78032B00F2A58088
:1048300001A252F823F000BF4948000809490008C6
:10484000CB480008374900080823FB747B685B6885
:104850004F4AB2FBF3F37B617B691B0CDBB23B720B
:104860007B691B0ADBB27B727B69DBB2BB727B6844
:104870001B7BFB727B685B7B3B737B689B680022C6
:104880001C4615464FEAD4194FEA4468414A4FF096
:10489000000340464946FBF7CBFC02460B46134655
:1048A0007B617B691B0CDBB27B737B691B0ADBB210
:1048B000BB737B69DBB2FB73FB7C9AB207F1080325
:1048C00019468B2000F008FA58E00423FB747B683B
:1048D0001B692F4AB2FBF3F37B617B691B0CDBB2D4
:1048E0003B727B691B0ADBB27B727B69DBB2BB72FA
:1048F0007B681B7DFB72FB7C9AB207F108031946AB
:104900008B2000F0E9F939E00423FB747B681B7EFF
:104910003B727B685B7E7B727B689B7EBB727B6835
:10492000DB7EFB72FB7C9AB207F1080319468B20F1
:1049300000F0D2F922E00523FB747B685B68144A1F
:10494000B2FBF3F37B617B691B0CDBB23B727B69CF
:104950001B0ADBB27B727B69DBB2BB727B681B7BA1
:10496000FB727B685B7B3B73FB7C9AB207F10803AD
:1049700019468B2000F0B0F900E000BF00BF1837E7
:10498000BD46BDE8B08300BFD05900082501002016
:104990000000093D0048E80180B586B000AF7860AE
:1049A0000023BB75484A07F10C0307CA03C31A70FA
:1049B0007B681A78454B1B789A4204D07B681B7839
:1049C0001846FFF723FE7B681B78032B78D801A2DB
:1049D00052F823F0E5490008754A0008694A0008C2
:1049E000E54900087B685B7AF12B0AD14FF6FF702E
:1049F000FFF715FC48F20500FFF731FC0223BB75F9
:104A000011E07B685B7AF22B0AD141F60F50FFF779
:104A100006FC41F22100FFF722FC0623BB7502E0F1
:104A20007B685B7ABB750923FB757B685B881B0A17
:104A30009BB2DBB23B737B685B88DBB27B737B68CA
:104A40001B79BB737B685B79FB737B689B793B74D9
:104A50007B68DB797B747B681B7ABB74BB7DFB74E2
:104A60007B689B7A3B7522E00123FB757B681B7B8F
:104A70003B731CE00623FB757B68DB891B0A9BB23A
:104A8000DBB23B737B68DB89DBB27B737B681A7CB0
:104A90000F4B114619701346BB737B685B7CFB732D
:104AA0007B689B7C3B747B68DB7C7B7400BFFB7DFD
:104AB0009AB207F10C0319468C2000F00DF900E0C2
:104AC00000BF1837BD4680BDD85900082501002019
:104AD0002601002080B584B000AF03460A46FB7172
:104AE0001346BB71FB793B73BB797B7307F10C03F6
:104AF000022219468F2000F0EFF800BF1037BD46A4
:104B000080BD000080B584B000AF7860396007F1E7
:104B10000C0302221946132000F000F9FFF792FD62
:104B20000346012B0DD10C4B1B78DBB2012B08D1B6
:104B300040F2027000F078F803461A467B681A705B
:104B400002E03A7B7B681A707A7B3B681A7000BF80
:104B50001037BD4680BD00BF2601002080B584B05F
:104B600000AF786007F10C0303221946142000F00F
:104B7000D5F8FFF767FD03461A467B681A707B6815
:104B80001B78002B02D0012B13D02AE03A7B7B68E4
:104B90001A717B7B5B425B105AB27B689A71BB7B5C
:104BA0005B425B105AB27B685A717B6800229A6044
:104BB00020E03B7B5B425B105AB27B681A737B7BC5
:104BC0005BB202339B105AB27B685A73BB7B5B4269
:104BD0005B105AB27B689A73084B1A687B681A613B
:104BE00008E014220021786800F034FA7B680F2274
:104BF0001A7000BF00BF1037BD4680BD28010020DD
:104C000080B582B000AF03460A46FB8013467B7135
:104C10007A1DF98801230348FDF7EAFF00BF083732
:104C2000BD4680BD1001002080B584B000AF0346B2
:104C3000FB8007F10F02F98801230448FEF737F8DB
:104C4000FB7B18461037BD4680BD00BF1001002019
:104C500080B586B000AF03463960FB801346BB8049
:104C6000EFF31083FB60FB687B6172B600BFBB880B
:104C7000F9883A680648FDF7BBFF7B693B613B69F1
:104C800083F3108800BF00BF1837BD4680BD00BF4A
:104C90001001002080B586B000AF03463960FB717B
:104CA0001346BB71EFF31083FB60FB687B6172B648
:104CB00000BFBB799BB2F9793A680648FEF70BF959
:104CC0007B693B613B6983F3108800BF00BF1837E5
:104CD000BD4680BD1001002080B586B000AF034600
:104CE0003960FB711346BB80EFF31083FB60FB68F8
:104CF0007B6172B600BFBB88F9793A680648FEF757
:104D000037F87B693B613B6983F3108800BF00BFC4
:104D10001837BD4680BD00BF1001002080B586B0A9
:104D200000AF03463960FB711346BB80EFF310837D
:104D3000FB60FB687B6172B600BFBB88F9793A689B
:104D40000648FEF774F87B693B613B6983F3108882
:104D500000BF00BF1837BD4680BD00BF1001002056
:104D600080B584B000AF03460A46FB711346BB71A1
:104D70000123FB73BB79012B0DD1FB79012B04D1EE
:104D80000223FB73042000F0E7F8FB79022B07D124
:104D90000323FB7304E0BB79002B01D10123FB73D8
:104DA000FB7B1846FFF791F900BF1037BD4680BD69
:104DB00080B584B000AF0346FB710123FB73FFF79E
:104DC00092F9B860BB68022B16D0BB68022B16DCC8
:104DD000BB68002B03D0BB68012B0AD00FE097F90A
:104DE00007300F2B02DD0223FB7309E00123FB7365
:104DF00006E00123FB7303E00223FB7300E000BF26
:104E000097F90710FB7B02221846FFF725FCFB7B76
:104E100018461037BD4680BD80B582B000AF7860BF
:104E2000034B1B680120984700BF0837BD4680BD73
:104E30003001002080B582B000AF7860034B1B6862
:104E40000220984700BF0837BD4680BD30010020D2
:104E500080B582B000AF7860034B1B684020984754
:104E600000BF0837BD4680BD3001002080B582B04C
:104E700000AF78600B46FB70FB78002B02D0012B53
:104E800005D00AE0074B1B688020984705E0054BDA
:104E90001B684FF48070984700BF00BF0837BD46BD
:104EA00080BD00BF3001002080B582B000AF7860C7
:104EB000044B1B684FF40070984700BF0837BD468D
:104EC00080BD00BF3001002080B582B000AF7860A7
:104ED000034B1B682020984700BF0837BD4680BDA4
:104EE0003001002080B582B000AF7860034B1B68B2
:104EF0000420984700BF0837BD4680BD3001002020
:104F000080B582B000AF7860034B1B6808209847DB
:104F100000BF0837BD4680BD3001002080B582B09B
:104F200000AF7860034B1B681020984700BF08371C
:104F3000BD4680BD3001002080B582B000AF7860F2
:104F4000044B1B684FF48040984700BF0837BD46AC
:104F500080BD00BF3001002080B584B000AF0346A3
:104F6000FB71FFF7CEF80346012B12D140F6231058
:104F7000FFF75AFE0346FB73FB7B23F00603FB732C
:104F8000FA7BFB791343DBB2194640F62310FFF797
:104F900037FE00BF1037BD4680BD000080B485B02D
:104FA00000AF78607B68002B01D11F2316E000233F
:104FB000FB730FE0FB7B0C4A52F833307A689A425D
:104FC00005D2FB7B084ADB0013441B7906E0FB7B20
:104FD0000133FB73FB7B152BECD9FEE71846143726
:104FE000BD4680BC704700BFAC5A00080CB430B559
:104FF000174B0C1E1D689DB008DA8B232B604FF0F9
:10500000FF301DB0BDE8304002B070474FF402736E
:10501000ADF8143014BF04F1FF3323460493079313
:105020004FF6FF7302900690ADF81630209A21AB30
:1050300002A92846019300F091F9431CBCBF8B23C1
:105040002B60002CDDD0029B00221A70D9E700BF34
:105050005800002002440346934200D1704703F8F1
:10506000011BF9E7014B1868704700BF580000208A
:1050700070B50D4D0D4C641BA4100026A64209D13D
:105080000B4D0C4C00F068FC641BA4100026A642DB
:1050900005D170BD55F8043B98470136EEE755F849
:1050A000043B98470136F2E7985B0008985B0008DC
:1050B000985B00089C5B00087047704738B5054650
:1050C000002941D051F8043C0C1F002BB8BFE41854
:1050D00000F0DEF81D4A136833B963601460284697
:1050E000BDE8384000F0DAB8A34208D9206821189A
:1050F0008B4201BF19685B6809182160EDE71A4609
:105100005B680BB1A342FAD911685018A0420BD1C9
:1051100020680144501883421160E0D118685B6830
:10512000536008441060DAE702D90C232B60D6E7FD
:10513000206821188B4204BF19685B68636004BF54
:10514000091821605460CAE738BD00BF740200200E
:1051500070B50E4E0C463168054611B900F0A6FB3D
:1051600030602146284600F0A1FB431C0AD0C41C35
:1051700024F00304A04207D0211A284600F096FB31
:10518000013001D14FF0FF34204670BD780200207D
:105190002DE9F843CD1C25F0030508350C2D38BF4B
:1051A0000C25002D074601DBA94205D90C233B60E5
:1051B00000263046BDE8F883DFF8D08000F068F8BC
:1051C000D8F800301C465CBB29463846FFF7C0FFC4
:1051D000431C044655D1D8F800402646002E45D140
:1051E000002C48D023683146384604EB030900F010
:1051F0005DFB81453FD121686D1A29463846FFF78E
:10520000A7FF013037D023682B442360D8F8003043
:10521000002B38D05A68A2422BD100225A600FE0EE
:105220002268521B1FD40B2A17D96119A34225608B
:1052300018BF5960636808BFC8F8001062514B601E
:10524000384604F10B0600F029F826F00706231D66
:10525000F21AAED09B1BA350ABE7A3426268DDD12C
:10526000C8F80020ECE723466468ACE7344676686B
:10527000B4E71346CCE70C233B60384600F00EF849
:1052800097E72560DCE75B60FFDE00BF740200206B
:105290000148FFF711BF00BF700200200148FFF76F
:1052A0000CBF00BF700200202DE9F0478E681F463A
:1052B000BE420B6882460C4690462CD88A8912F46E
:1052C000906F26D06569096905EB4505A3EB0109D7
:1052D00005EBD5757B1C4B446D109D4238BF1D46B8
:1052E000530527D52946FFF753FF064660B32169CA
:1052F0004A4600F0EBFAA38923F4906343F080035D
:10530000A381266165614E44A5EB09052660A56071
:105310003E46BE4200D93E4620683246414600F035
:10532000ABFAA3689B1BA36023683344236000206F
:10533000BDE8F0872A4600F0D7FA06460028E0D1FB
:1053400021695046FFF7BAFE0C23CAF80030A38942
:1053500043F04003A3814FF0FF30E9E72DE9F04F20
:1053600098468B891B069DB007460D4614460ED500
:105370000B6963B94021FFF70BFF2860286120B952
:105380000C233B604FF0FF30D0E040236B610023E3
:10539000099320238DF82930CDF80C803023DFF8D5
:1053A000A4818DF82A304FF0010923469A4613F85C
:1053B000012B0AB1252AF9D1BAEB040B0BD05B46BD
:1053C000224629463846FFF76FFF013000F0A980DA
:1053D000099A5A4409929AF80030002B00F0A180F3
:1053E00000234FF0FF32CDE905230AF1010A0493AF
:1053F00007938DF853301A935446052214F8011B75
:105400005048FAF7C5FE049AD8B9D00644BF202305
:105410008DF85330110744BF2B238DF853309AF881
:1054200000302A2B15D0079A544600204FF00A0C62
:10543000214611F8013B303B092B4DD9B0B1079201
:1054400014E0A0EB080309FA03F313430493A24604
:10545000D2E7039B191D1B680391002BBBBF5B4266
:1054600042F0020207930793B8BF049223782E2BD1
:105470000CD163782A2B34D1039B1A1D1B6803922D
:10548000002BB8BF4FF0FF3302340593DFF8B8A00C
:10549000217803225046FAF77BFE38B1049BA0EB3B
:1054A0000A004022824013430134049314F8011B84
:1054B00026488DF828100622FAF76AFE002838D010
:1054C000234B1BBB039B073323F0070308330393D2
:1054D000099B3344099368E70CFB02320C46012018
:1054E000A6E700230134059319464FF00A0C204625
:1054F00010F8012B303A092A03D9002BC6D00591A8
:10550000C4E70CFB012104460123F0E703AB009341
:105510002A46104B04A93846AFF30080421C0646C9
:10552000D6D1AB895B063FF52DAF09981DB0BDE81C
:10553000F08F03AB00932A46064B04A9384600F0CF
:1055400079F8EBE75C5B0008625B0008665B0008CB
:1055500000000000A95200082DE9F04716469946C0
:105560008A680B69DDF820809342B8BF1346336028
:1055700091F8432007460C460AB101333360236893
:10558000990642BF336802333360256815F006057B
:1055900006D104F1190AE36832689B1AAB4226DC93
:1055A00094F84320131E226818BF012392062BD4BF
:1055B00004F1430249463846C04701301ED02368F3
:1055C000226903F00603042B02BFE5683368ED1A75
:1055D000A3680CBF25EAE57500259342C4BF9B1A5A
:1055E000ED1800261A34B5421AD1002008E0012334
:1055F000524649463846C047013003D14FF0FF308C
:10560000BDE8F0870135C6E7E1185A1C302081F863
:105610004300224494F8451082F843100233C7E750
:105620000123224649463846C0470130E6D00136BC
:10563000D9E700002DE9FF470F7E0C9D782F91469A
:1056400080460C469A4601F1430207D8622F0AD8D9
:10565000002F00F0D480582F00F0C08004F14205E4
:1056600084F842703AE0A7F16303152BF6D801A144
:1056700051F823F0CD560008E15600085D560008A9
:105680005D5600085D5600085D560008E1560008AA
:105690005D5600085D5600085D5600085D5600081E
:1056A000E55700080D5700089F5700085D56000891
:1056B0005D560008075800085D5600080D570008A1
:1056C0005D5600085D560008A75700082B681A1D94
:1056D0001B682A6004F1420584F8423001239FE0F0
:1056E00020682B68070603F10401296001D51E68B4
:1056F00003E04606FBD5B3F90060002E03DA2D2344
:10570000764284F843305A480A2312E02B68206816
:10571000191D2960050601D51E6802E04106FBD56A
:105720001E8853486F2F0CBF08230A23002184F8DA
:1057300043106568A560002DA2BF216821F0040117
:1057400021600EB9002D4BD01546B6FBF3F103FBDB
:105750001167C75D05F8017D3746BB420E46F4D997
:10576000082B0BD12368DE0708D5236961689942AD
:10577000DEBF302305F8013C05F1FF35521B2261E5
:10578000CDF800A04B4603AA21464046FFF7E4FEB1
:1057900001304AD14FF0FF3004B0BDE8F0872368F4
:1057A00043F0200323603348782784F8457023684A
:1057B00029681F0651F8046B02D45F0648BFB6B2D1
:1057C000DF0748BF43F02003296048BF23601EB9AC
:1057D000236823F0200323601023A7E72448E4E78D
:1057E0001546BDE72B6826686169181D28603506D7
:1057F0001B6801D5196002E07006FBD519800023F3
:1058000023611546BCE72B681A1D2A601D68626873
:1058100000212846FAF7BCFC08B1401B60606368B1
:105820002361002384F84330AAE723692A464946C6
:105830004046D0470130ADD023689B0713D4E068C1
:10584000039B9842B8BF1846A6E701233246494653
:105850004046D04701309DD00135E36803995B1A7B
:10586000AB42F2DCEBE7002504F11906F5E700BFD7
:105870006D5B00087E5B0008884210B501EB0204F6
:1058800002D98442234607D8431EA14208D011F80A
:10589000012B03F8012FF8E7024401468A4200D1A8
:1058A00010BD13F8014D02F8014DF7E738B5064D6C
:1058B0000023044608462B60FBF7EAF9431C02D19B
:1058C0002B6803B1236038BD6C0200200A4491426A
:1058D00000F1FF3300D1704710B511F8014B03F808
:1058E000014F9142F9D110BD2DE9F0418046144697
:1058F0000E4621B9BDE8F0411146FFF749BC2AB96F
:10590000FFF7DCFB25462846BDE8F08100F01BF8D8
:105910008442074602D8B4EB500F12D821464046C5
:10592000FFF736FC05460028EDD0BC422246314642
:1059300028BF3A46FFF7CAFF31464046FFF7BEFB95
:10594000E1E73546DFE751F8043C181F002BBCBFE8
:105950000B58C01870470000F8B500BFF8BC08BC71
:105960009E467047F8B500BFF8BC08BC9E4670471D
:105970002530327800000000205354415455533DE7
:10598000256420525353495F53594E433D256420AB
:10599000525353495F4156473D2564204652455175
:1059A0005F4552523D256C640D0A0000930B51DE99
:1059B00000000000120024003000000006000C006F
:1059C00010000000000000000100000002000000C4
:1059D00000000000000000000000000000000000C7
:1059E00000000000010000000300000005000000AE
:1059F0000100000001000000060000000A00000095
:105A00002000000002000000040000000800000068
:105A100010000000400000008000000000010000B5
:105A20000002000000000000000000000000000074
:105A30000000000001000000020000000300000060
:105A400004000000A0860100400D0300801A06003B
:105A500000350C0040420F0080841E0000093D000C
:105A600000127A000024F40000366E010048E801BC
:105A7000006CDC02000000000000000000000000DC
:105A800000000000010002000400060008000A00F7
:105A90000C00100020004000800000010101010303
:105AA000070100000804020408010101C0120000FF
:105AB0001F000000A816000017000000841C000052
:105AC0000F000000E42500001E000000B42D0000BF
:105AD00016000000083900000E0000002C4C0000E9
